{
	"contract/DataGuardianLogger.sol": {
		"DataGuardianLogger": {
			"abi": [
				{
					"anonymous": false,
					"inputs": [
						{
							"indexed": true,
							"internalType": "address",
							"name": "user",
							"type": "address"
						},
						{
							"indexed": false,
							"internalType": "string",
							"name": "dataType",
							"type": "string"
						},
						{
							"indexed": false,
							"internalType": "bool",
							"name": "decision",
							"type": "bool"
						},
						{
							"indexed": false,
							"internalType": "bytes32",
							"name": "detailsHash",
							"type": "bytes32"
						},
						{
							"indexed": false,
							"internalType": "uint256",
							"name": "timestamp",
							"type": "uint256"
						}
					],
					"name": "DataLogged",
					"type": "event"
				},
				{
					"inputs": [
						{
							"internalType": "uint256",
							"name": "index",
							"type": "uint256"
						}
					],
					"name": "getLog",
					"outputs": [
						{
							"components": [
								{
									"internalType": "address",
									"name": "user",
									"type": "address"
								},
								{
									"internalType": "string",
									"name": "dataType",
									"type": "string"
								},
								{
									"internalType": "bool",
									"name": "decision",
									"type": "bool"
								},
								{
									"internalType": "bytes32",
									"name": "detailsHash",
									"type": "bytes32"
								},
								{
									"internalType": "uint256",
									"name": "timestamp",
									"type": "uint256"
								}
							],
							"internalType": "struct DataGuardianLogger.Log",
							"name": "",
							"type": "tuple"
						}
					],
					"stateMutability": "view",
					"type": "function"
				},
				{
					"inputs": [],
					"name": "getLogsCount",
					"outputs": [
						{
							"internalType": "uint256",
							"name": "",
							"type": "uint256"
						}
					],
					"stateMutability": "view",
					"type": "function"
				},
				{
					"inputs": [
						{
							"internalType": "address",
							"name": "user",
							"type": "address"
						}
					],
					"name": "getUserLogs",
					"outputs": [
						{
							"components": [
								{
									"internalType": "address",
									"name": "user",
									"type": "address"
								},
								{
									"internalType": "string",
									"name": "dataType",
									"type": "string"
								},
								{
									"internalType": "bool",
									"name": "decision",
									"type": "bool"
								},
								{
									"internalType": "bytes32",
									"name": "detailsHash",
									"type": "bytes32"
								},
								{
									"internalType": "uint256",
									"name": "timestamp",
									"type": "uint256"
								}
							],
							"internalType": "struct DataGuardianLogger.Log[]",
							"name": "",
							"type": "tuple[]"
						}
					],
					"stateMutability": "view",
					"type": "function"
				},
				{
					"inputs": [
						{
							"internalType": "address",
							"name": "user",
							"type": "address"
						},
						{
							"internalType": "string",
							"name": "dataType",
							"type": "string"
						},
						{
							"internalType": "bool",
							"name": "decision",
							"type": "bool"
						},
						{
							"internalType": "bytes32",
							"name": "detailsHash",
							"type": "bytes32"
						}
					],
					"name": "logData",
					"outputs": [],
					"stateMutability": "nonpayable",
					"type": "function"
				},
				{
					"inputs": [
						{
							"internalType": "uint256",
							"name": "",
							"type": "uint256"
						}
					],
					"name": "logs",
					"outputs": [
						{
							"internalType": "address",
							"name": "user",
							"type": "address"
						},
						{
							"internalType": "string",
							"name": "dataType",
							"type": "string"
						},
						{
							"internalType": "bool",
							"name": "decision",
							"type": "bool"
						},
						{
							"internalType": "bytes32",
							"name": "detailsHash",
							"type": "bytes32"
						},
						{
							"internalType": "uint256",
							"name": "timestamp",
							"type": "uint256"
						}
					],
					"stateMutability": "view",
					"type": "function"
				}
			],
			"devdoc": {
				"details": "Smart contract for logging privacy decisions on-chain Stores hashed details to protect user privacy while maintaining transparency",
				"kind": "dev",
				"methods": {
					"getLog(uint256)": {
						"details": "Get a specific log by index",
						"params": {
							"index": "Index of the log to retrieve"
						},
						"returns": {
							"_0": "Log struct containing all privacy decision details"
						}
					},
					"getLogsCount()": {
						"details": "Get total number of logs",
						"returns": {
							"_0": "Total count of privacy logs"
						}
					},
					"getUserLogs(address)": {
						"details": "Get all logs for a specific user",
						"params": {
							"user": "User's address to filter logs"
						},
						"returns": {
							"_0": "Array of logs for the specified user"
						}
					},
					"logData(address,string,bool,bytes32)": {
						"details": "Log a new privacy decision",
						"params": {
							"dataType": "Type of sensitive data detected",
							"decision": "User's approval/rejection decision",
							"detailsHash": "SHA-256 hash of the details (privacy-preserving)",
							"user": "User's address making the decision"
						}
					}
				},
				"title": "DataGuardianLogger",
				"version": 1
			},
			"evm": {
				"assembly": "    /* \"contract/DataGuardianLogger.sol\":237:3050  contract DataGuardianLogger {... */\n  mstore(0x40, 0x80)\n  callvalue\n  dup1\n  iszero\n  tag_1\n  jumpi\n  0x00\n  dup1\n  revert\ntag_1:\n  pop\n  dataSize(sub_0)\n  dup1\n  dataOffset(sub_0)\n  0x00\n  codecopy\n  0x00\n  return\nstop\n\nsub_0: assembly {\n        /* \"contract/DataGuardianLogger.sol\":237:3050  contract DataGuardianLogger {... */\n      mstore(0x40, 0x80)\n      callvalue\n      dup1\n      iszero\n      tag_1\n      jumpi\n      0x00\n      dup1\n      revert\n    tag_1:\n      pop\n      jumpi(tag_2, lt(calldatasize, 0x04))\n      shr(0xe0, calldataload(0x00))\n      dup1\n      0x3206b2c6\n      eq\n      tag_3\n      jumpi\n      dup1\n      0x5de0f6f6\n      eq\n      tag_4\n      jumpi\n      dup1\n      0xcc9e300f\n      eq\n      tag_5\n      jumpi\n      dup1\n      0xe79899bd\n      eq\n      tag_6\n      jumpi\n      dup1\n      0xf6a1d12a\n      eq\n      tag_7\n      jumpi\n    tag_2:\n      0x00\n      dup1\n      revert\n        /* \"contract/DataGuardianLogger.sol\":2081:2247  function getLog(uint256 index) external view returns (Log memory) {... */\n    tag_3:\n      tag_8\n      0x04\n      dup1\n      calldatasize\n      sub\n      dup2\n      add\n      swap1\n      tag_9\n      swap2\n      swap1\n      tag_10\n      jump\t// in\n    tag_9:\n      tag_11\n      jump\t// in\n    tag_8:\n      mload(0x40)\n      tag_12\n      swap2\n      swap1\n      tag_13\n      jump\t// in\n    tag_12:\n      mload(0x40)\n      dup1\n      swap2\n      sub\n      swap1\n      return\n        /* \"contract/DataGuardianLogger.sol\":2419:3048  function getUserLogs(address user) external view returns (Log[] memory) {... */\n    tag_4:\n      tag_14\n      0x04\n      dup1\n      calldatasize\n      sub\n      dup2\n      add\n      swap1\n      tag_15\n      swap2\n      swap1\n      tag_16\n      jump\t// in\n    tag_15:\n      tag_17\n      jump\t// in\n    tag_14:\n      mload(0x40)\n      tag_18\n      swap2\n      swap1\n      tag_19\n      jump\t// in\n    tag_18:\n      mload(0x40)\n      dup1\n      swap2\n      sub\n      swap1\n      return\n        /* \"contract/DataGuardianLogger.sol\":1809:1900  function getLogsCount() external view returns (uint256) {... */\n    tag_5:\n      tag_20\n      tag_21\n      jump\t// in\n    tag_20:\n      mload(0x40)\n      tag_22\n      swap2\n      swap1\n      tag_23\n      jump\t// in\n    tag_22:\n      mload(0x40)\n      dup1\n      swap2\n      sub\n      swap1\n      return\n        /* \"contract/DataGuardianLogger.sol\":715:732  Log[] public logs */\n    tag_6:\n      tag_24\n      0x04\n      dup1\n      calldatasize\n      sub\n      dup2\n      add\n      swap1\n      tag_25\n      swap2\n      swap1\n      tag_10\n      jump\t// in\n    tag_25:\n      tag_26\n      jump\t// in\n    tag_24:\n      mload(0x40)\n      tag_27\n      swap6\n      swap5\n      swap4\n      swap3\n      swap2\n      swap1\n      tag_28\n      jump\t// in\n    tag_27:\n      mload(0x40)\n      dup1\n      swap2\n      sub\n      swap1\n      return\n        /* \"contract/DataGuardianLogger.sol\":1264:1703  function logData(... */\n    tag_7:\n      tag_29\n      0x04\n      dup1\n      calldatasize\n      sub\n      dup2\n      add\n      swap1\n      tag_30\n      swap2\n      swap1\n      tag_31\n      jump\t// in\n    tag_30:\n      tag_32\n      jump\t// in\n    tag_29:\n      stop\n        /* \"contract/DataGuardianLogger.sol\":2081:2247  function getLog(uint256 index) external view returns (Log memory) {... */\n    tag_11:\n        /* \"contract/DataGuardianLogger.sol\":2135:2145  Log memory */\n      tag_33\n      tag_34\n      jump\t// in\n    tag_33:\n        /* \"contract/DataGuardianLogger.sol\":2173:2177  logs */\n      0x00\n        /* \"contract/DataGuardianLogger.sol\":2173:2184  logs.length */\n      dup1\n      sload\n      swap1\n      pop\n        /* \"contract/DataGuardianLogger.sol\":2165:2170  index */\n      dup3\n        /* \"contract/DataGuardianLogger.sol\":2165:2184  index < logs.length */\n      lt\n        /* \"contract/DataGuardianLogger.sol\":2157:2212  require(index < logs.length, \"Log index out of bounds\") */\n      tag_36\n      jumpi\n      mload(0x40)\n      0x08c379a000000000000000000000000000000000000000000000000000000000\n      dup2\n      mstore\n      0x04\n      add\n      tag_37\n      swap1\n      tag_38\n      jump\t// in\n    tag_37:\n      mload(0x40)\n      dup1\n      swap2\n      sub\n      swap1\n      revert\n    tag_36:\n        /* \"contract/DataGuardianLogger.sol\":2229:2233  logs */\n      0x00\n        /* \"contract/DataGuardianLogger.sol\":2234:2239  index */\n      dup3\n        /* \"contract/DataGuardianLogger.sol\":2229:2240  logs[index] */\n      dup2\n      sload\n      dup2\n      lt\n      tag_39\n      jumpi\n      tag_40\n      tag_41\n      jump\t// in\n    tag_40:\n    tag_39:\n      swap1\n      0x00\n      mstore\n      keccak256(0x00, 0x20)\n      swap1\n      0x05\n      mul\n      add\n        /* \"contract/DataGuardianLogger.sol\":2222:2240  return logs[index] */\n      mload(0x40)\n      dup1\n      0xa0\n      add\n      0x40\n      mstore\n      swap1\n      dup2\n      0x00\n      dup3\n      add\n      0x00\n      swap1\n      sload\n      swap1\n      0x0100\n      exp\n      swap1\n      div\n      0xffffffffffffffffffffffffffffffffffffffff\n      and\n      0xffffffffffffffffffffffffffffffffffffffff\n      and\n      0xffffffffffffffffffffffffffffffffffffffff\n      and\n      dup2\n      mstore\n      0x20\n      add\n      0x01\n      dup3\n      add\n      dup1\n      sload\n      tag_43\n      swap1\n      tag_44\n      jump\t// in\n    tag_43:\n      dup1\n      0x1f\n      add\n      0x20\n      dup1\n      swap2\n      div\n      mul\n      0x20\n      add\n      mload(0x40)\n      swap1\n      dup2\n      add\n      0x40\n      mstore\n      dup1\n      swap3\n      swap2\n      swap1\n      dup2\n      dup2\n      mstore\n      0x20\n      add\n      dup3\n      dup1\n      sload\n      tag_45\n      swap1\n      tag_44\n      jump\t// in\n    tag_45:\n      dup1\n      iszero\n      tag_46\n      jumpi\n      dup1\n      0x1f\n      lt\n      tag_47\n      jumpi\n      0x0100\n      dup1\n      dup4\n      sload\n      div\n      mul\n      dup4\n      mstore\n      swap2\n      0x20\n      add\n      swap2\n      jump(tag_46)\n    tag_47:\n      dup3\n      add\n      swap2\n      swap1\n      0x00\n      mstore\n      keccak256(0x00, 0x20)\n      swap1\n    tag_48:\n      dup2\n      sload\n      dup2\n      mstore\n      swap1\n      0x01\n      add\n      swap1\n      0x20\n      add\n      dup1\n      dup4\n      gt\n      tag_48\n      jumpi\n      dup3\n      swap1\n      sub\n      0x1f\n      and\n      dup3\n      add\n      swap2\n    tag_46:\n      pop\n      pop\n      pop\n      pop\n      pop\n      dup2\n      mstore\n      0x20\n      add\n      0x02\n      dup3\n      add\n      0x00\n      swap1\n      sload\n      swap1\n      0x0100\n      exp\n      swap1\n      div\n      0xff\n      and\n      iszero\n      iszero\n      iszero\n      iszero\n      dup2\n      mstore\n      0x20\n      add\n      0x03\n      dup3\n      add\n      sload\n      dup2\n      mstore\n      0x20\n      add\n      0x04\n      dup3\n      add\n      sload\n      dup2\n      mstore\n      pop\n      pop\n      swap1\n      pop\n        /* \"contract/DataGuardianLogger.sol\":2081:2247  function getLog(uint256 index) external view returns (Log memory) {... */\n      swap2\n      swap1\n      pop\n      jump\t// out\n        /* \"contract/DataGuardianLogger.sol\":2419:3048  function getUserLogs(address user) external view returns (Log[] memory) {... */\n    tag_17:\n        /* \"contract/DataGuardianLogger.sol\":2477:2489  Log[] memory */\n      0x60\n        /* \"contract/DataGuardianLogger.sol\":2501:2514  uint256 count */\n      0x00\n        /* \"contract/DataGuardianLogger.sol\":2571:2580  uint256 i */\n      dup1\n        /* \"contract/DataGuardianLogger.sol\":2566:2698  for (uint256 i = 0; i < logs.length; i++) {... */\n    tag_50:\n        /* \"contract/DataGuardianLogger.sol\":2590:2594  logs */\n      0x00\n        /* \"contract/DataGuardianLogger.sol\":2590:2601  logs.length */\n      dup1\n      sload\n      swap1\n      pop\n        /* \"contract/DataGuardianLogger.sol\":2586:2587  i */\n      dup2\n        /* \"contract/DataGuardianLogger.sol\":2586:2601  i < logs.length */\n      lt\n        /* \"contract/DataGuardianLogger.sol\":2566:2698  for (uint256 i = 0; i < logs.length; i++) {... */\n      iszero\n      tag_51\n      jumpi\n        /* \"contract/DataGuardianLogger.sol\":2642:2646  user */\n      dup4\n        /* \"contract/DataGuardianLogger.sol\":2626:2646  logs[i].user == user */\n      0xffffffffffffffffffffffffffffffffffffffff\n      and\n        /* \"contract/DataGuardianLogger.sol\":2626:2630  logs */\n      0x00\n        /* \"contract/DataGuardianLogger.sol\":2631:2632  i */\n      dup3\n        /* \"contract/DataGuardianLogger.sol\":2626:2633  logs[i] */\n      dup2\n      sload\n      dup2\n      lt\n      tag_53\n      jumpi\n      tag_54\n      tag_41\n      jump\t// in\n    tag_54:\n    tag_53:\n      swap1\n      0x00\n      mstore\n      keccak256(0x00, 0x20)\n      swap1\n      0x05\n      mul\n      add\n        /* \"contract/DataGuardianLogger.sol\":2626:2638  logs[i].user */\n      0x00\n      add\n      0x00\n      swap1\n      sload\n      swap1\n      0x0100\n      exp\n      swap1\n      div\n      0xffffffffffffffffffffffffffffffffffffffff\n      and\n        /* \"contract/DataGuardianLogger.sol\":2626:2646  logs[i].user == user */\n      0xffffffffffffffffffffffffffffffffffffffff\n      and\n      sub\n        /* \"contract/DataGuardianLogger.sol\":2622:2688  if (logs[i].user == user) {... */\n      tag_56\n      jumpi\n        /* \"contract/DataGuardianLogger.sol\":2666:2673  count++ */\n      dup2\n      dup1\n      tag_57\n      swap1\n      tag_58\n      jump\t// in\n    tag_57:\n      swap3\n      pop\n      pop\n        /* \"contract/DataGuardianLogger.sol\":2622:2688  if (logs[i].user == user) {... */\n    tag_56:\n        /* \"contract/DataGuardianLogger.sol\":2603:2606  i++ */\n      dup1\n      dup1\n      tag_59\n      swap1\n      tag_58\n      jump\t// in\n    tag_59:\n      swap2\n      pop\n      pop\n        /* \"contract/DataGuardianLogger.sol\":2566:2698  for (uint256 i = 0; i < logs.length; i++) {... */\n      jump(tag_50)\n    tag_51:\n      pop\n        /* \"contract/DataGuardianLogger.sol\":2747:2768  Log[] memory userLogs */\n      0x00\n        /* \"contract/DataGuardianLogger.sol\":2781:2786  count */\n      dup2\n        /* \"contract/DataGuardianLogger.sol\":2771:2787  new Log[](count) */\n      0xffffffffffffffff\n      dup2\n      gt\n      iszero\n      tag_60\n      jumpi\n      tag_61\n      tag_62\n      jump\t// in\n    tag_61:\n    tag_60:\n      mload(0x40)\n      swap1\n      dup1\n      dup3\n      mstore\n      dup1\n      0x20\n      mul\n      0x20\n      add\n      dup3\n      add\n      0x40\n      mstore\n      dup1\n      iszero\n      tag_63\n      jumpi\n      dup2\n      0x20\n      add\n    tag_64:\n      tag_65\n      tag_34\n      jump\t// in\n    tag_65:\n      dup2\n      mstore\n      0x20\n      add\n      swap1\n      0x01\n      swap1\n      sub\n      swap1\n      dup2\n      tag_64\n      jumpi\n      swap1\n      pop\n    tag_63:\n      pop\n        /* \"contract/DataGuardianLogger.sol\":2747:2787  Log[] memory userLogs = new Log[](count) */\n      swap1\n      pop\n        /* \"contract/DataGuardianLogger.sol\":2797:2810  uint256 index */\n      0x00\n        /* \"contract/DataGuardianLogger.sol\":2838:2847  uint256 i */\n      dup1\n        /* \"contract/DataGuardianLogger.sol\":2833:3008  for (uint256 i = 0; i < logs.length; i++) {... */\n    tag_66:\n        /* \"contract/DataGuardianLogger.sol\":2857:2861  logs */\n      0x00\n        /* \"contract/DataGuardianLogger.sol\":2857:2868  logs.length */\n      dup1\n      sload\n      swap1\n      pop\n        /* \"contract/DataGuardianLogger.sol\":2853:2854  i */\n      dup2\n        /* \"contract/DataGuardianLogger.sol\":2853:2868  i < logs.length */\n      lt\n        /* \"contract/DataGuardianLogger.sol\":2833:3008  for (uint256 i = 0; i < logs.length; i++) {... */\n      iszero\n      tag_67\n      jumpi\n        /* \"contract/DataGuardianLogger.sol\":2909:2913  user */\n      dup6\n        /* \"contract/DataGuardianLogger.sol\":2893:2913  logs[i].user == user */\n      0xffffffffffffffffffffffffffffffffffffffff\n      and\n        /* \"contract/DataGuardianLogger.sol\":2893:2897  logs */\n      0x00\n        /* \"contract/DataGuardianLogger.sol\":2898:2899  i */\n      dup3\n        /* \"contract/DataGuardianLogger.sol\":2893:2900  logs[i] */\n      dup2\n      sload\n      dup2\n      lt\n      tag_69\n      jumpi\n      tag_70\n      tag_41\n      jump\t// in\n    tag_70:\n    tag_69:\n      swap1\n      0x00\n      mstore\n      keccak256(0x00, 0x20)\n      swap1\n      0x05\n      mul\n      add\n        /* \"contract/DataGuardianLogger.sol\":2893:2905  logs[i].user */\n      0x00\n      add\n      0x00\n      swap1\n      sload\n      swap1\n      0x0100\n      exp\n      swap1\n      div\n      0xffffffffffffffffffffffffffffffffffffffff\n      and\n        /* \"contract/DataGuardianLogger.sol\":2893:2913  logs[i].user == user */\n      0xffffffffffffffffffffffffffffffffffffffff\n      and\n      sub\n        /* \"contract/DataGuardianLogger.sol\":2889:2998  if (logs[i].user == user) {... */\n      tag_72\n      jumpi\n        /* \"contract/DataGuardianLogger.sol\":2951:2955  logs */\n      0x00\n        /* \"contract/DataGuardianLogger.sol\":2956:2957  i */\n      dup2\n        /* \"contract/DataGuardianLogger.sol\":2951:2958  logs[i] */\n      dup2\n      sload\n      dup2\n      lt\n      tag_73\n      jumpi\n      tag_74\n      tag_41\n      jump\t// in\n    tag_74:\n    tag_73:\n      swap1\n      0x00\n      mstore\n      keccak256(0x00, 0x20)\n      swap1\n      0x05\n      mul\n      add\n        /* \"contract/DataGuardianLogger.sol\":2933:2958  userLogs[index] = logs[i] */\n      mload(0x40)\n      dup1\n      0xa0\n      add\n      0x40\n      mstore\n      swap1\n      dup2\n      0x00\n      dup3\n      add\n      0x00\n      swap1\n      sload\n      swap1\n      0x0100\n      exp\n      swap1\n      div\n      0xffffffffffffffffffffffffffffffffffffffff\n      and\n      0xffffffffffffffffffffffffffffffffffffffff\n      and\n      0xffffffffffffffffffffffffffffffffffffffff\n      and\n      dup2\n      mstore\n      0x20\n      add\n      0x01\n      dup3\n      add\n      dup1\n      sload\n      tag_76\n      swap1\n      tag_44\n      jump\t// in\n    tag_76:\n      dup1\n      0x1f\n      add\n      0x20\n      dup1\n      swap2\n      div\n      mul\n      0x20\n      add\n      mload(0x40)\n      swap1\n      dup2\n      add\n      0x40\n      mstore\n      dup1\n      swap3\n      swap2\n      swap1\n      dup2\n      dup2\n      mstore\n      0x20\n      add\n      dup3\n      dup1\n      sload\n      tag_77\n      swap1\n      tag_44\n      jump\t// in\n    tag_77:\n      dup1\n      iszero\n      tag_78\n      jumpi\n      dup1\n      0x1f\n      lt\n      tag_79\n      jumpi\n      0x0100\n      dup1\n      dup4\n      sload\n      div\n      mul\n      dup4\n      mstore\n      swap2\n      0x20\n      add\n      swap2\n      jump(tag_78)\n    tag_79:\n      dup3\n      add\n      swap2\n      swap1\n      0x00\n      mstore\n      keccak256(0x00, 0x20)\n      swap1\n    tag_80:\n      dup2\n      sload\n      dup2\n      mstore\n      swap1\n      0x01\n      add\n      swap1\n      0x20\n      add\n      dup1\n      dup4\n      gt\n      tag_80\n      jumpi\n      dup3\n      swap1\n      sub\n      0x1f\n      and\n      dup3\n      add\n      swap2\n    tag_78:\n      pop\n      pop\n      pop\n      pop\n      pop\n      dup2\n      mstore\n      0x20\n      add\n      0x02\n      dup3\n      add\n      0x00\n      swap1\n      sload\n      swap1\n      0x0100\n      exp\n      swap1\n      div\n      0xff\n      and\n      iszero\n      iszero\n      iszero\n      iszero\n      dup2\n      mstore\n      0x20\n      add\n      0x03\n      dup3\n      add\n      sload\n      dup2\n      mstore\n      0x20\n      add\n      0x04\n      dup3\n      add\n      sload\n      dup2\n      mstore\n      pop\n      pop\n        /* \"contract/DataGuardianLogger.sol\":2933:2941  userLogs */\n      dup4\n        /* \"contract/DataGuardianLogger.sol\":2942:2947  index */\n      dup4\n        /* \"contract/DataGuardianLogger.sol\":2933:2948  userLogs[index] */\n      dup2\n      mload\n      dup2\n      lt\n      tag_81\n      jumpi\n      tag_82\n      tag_41\n      jump\t// in\n    tag_82:\n    tag_81:\n      0x20\n      mul\n      0x20\n      add\n      add\n        /* \"contract/DataGuardianLogger.sol\":2933:2958  userLogs[index] = logs[i] */\n      dup2\n      swap1\n      mstore\n      pop\n        /* \"contract/DataGuardianLogger.sol\":2976:2983  index++ */\n      dup2\n      dup1\n      tag_83\n      swap1\n      tag_58\n      jump\t// in\n    tag_83:\n      swap3\n      pop\n      pop\n        /* \"contract/DataGuardianLogger.sol\":2889:2998  if (logs[i].user == user) {... */\n    tag_72:\n        /* \"contract/DataGuardianLogger.sol\":2870:2873  i++ */\n      dup1\n      dup1\n      tag_84\n      swap1\n      tag_58\n      jump\t// in\n    tag_84:\n      swap2\n      pop\n      pop\n        /* \"contract/DataGuardianLogger.sol\":2833:3008  for (uint256 i = 0; i < logs.length; i++) {... */\n      jump(tag_66)\n    tag_67:\n      pop\n        /* \"contract/DataGuardianLogger.sol\":3033:3041  userLogs */\n      dup2\n        /* \"contract/DataGuardianLogger.sol\":3026:3041  return userLogs */\n      swap4\n      pop\n      pop\n      pop\n      pop\n        /* \"contract/DataGuardianLogger.sol\":2419:3048  function getUserLogs(address user) external view returns (Log[] memory) {... */\n      swap2\n      swap1\n      pop\n      jump\t// out\n        /* \"contract/DataGuardianLogger.sol\":1809:1900  function getLogsCount() external view returns (uint256) {... */\n    tag_21:\n        /* \"contract/DataGuardianLogger.sol\":1856:1863  uint256 */\n      0x00\n        /* \"contract/DataGuardianLogger.sol\":1882:1886  logs */\n      dup1\n        /* \"contract/DataGuardianLogger.sol\":1882:1893  logs.length */\n      dup1\n      sload\n      swap1\n      pop\n        /* \"contract/DataGuardianLogger.sol\":1875:1893  return logs.length */\n      swap1\n      pop\n        /* \"contract/DataGuardianLogger.sol\":1809:1900  function getLogsCount() external view returns (uint256) {... */\n      swap1\n      jump\t// out\n        /* \"contract/DataGuardianLogger.sol\":715:732  Log[] public logs */\n    tag_26:\n      0x00\n      dup2\n      dup2\n      sload\n      dup2\n      lt\n      tag_86\n      jumpi\n      0x00\n      dup1\n      revert\n    tag_86:\n      swap1\n      0x00\n      mstore\n      keccak256(0x00, 0x20)\n      swap1\n      0x05\n      mul\n      add\n      0x00\n      swap2\n      pop\n      swap1\n      pop\n      dup1\n      0x00\n      add\n      0x00\n      swap1\n      sload\n      swap1\n      0x0100\n      exp\n      swap1\n      div\n      0xffffffffffffffffffffffffffffffffffffffff\n      and\n      swap1\n      dup1\n      0x01\n      add\n      dup1\n      sload\n      tag_88\n      swap1\n      tag_44\n      jump\t// in\n    tag_88:\n      dup1\n      0x1f\n      add\n      0x20\n      dup1\n      swap2\n      div\n      mul\n      0x20\n      add\n      mload(0x40)\n      swap1\n      dup2\n      add\n      0x40\n      mstore\n      dup1\n      swap3\n      swap2\n      swap1\n      dup2\n      dup2\n      mstore\n      0x20\n      add\n      dup3\n      dup1\n      sload\n      tag_89\n      swap1\n      tag_44\n      jump\t// in\n    tag_89:\n      dup1\n      iszero\n      tag_90\n      jumpi\n      dup1\n      0x1f\n      lt\n      tag_91\n      jumpi\n      0x0100\n      dup1\n      dup4\n      sload\n      div\n      mul\n      dup4\n      mstore\n      swap2\n      0x20\n      add\n      swap2\n      jump(tag_90)\n    tag_91:\n      dup3\n      add\n      swap2\n      swap1\n      0x00\n      mstore\n      keccak256(0x00, 0x20)\n      swap1\n    tag_92:\n      dup2\n      sload\n      dup2\n      mstore\n      swap1\n      0x01\n      add\n      swap1\n      0x20\n      add\n      dup1\n      dup4\n      gt\n      tag_92\n      jumpi\n      dup3\n      swap1\n      sub\n      0x1f\n      and\n      dup3\n      add\n      swap2\n    tag_90:\n      pop\n      pop\n      pop\n      pop\n      pop\n      swap1\n      dup1\n      0x02\n      add\n      0x00\n      swap1\n      sload\n      swap1\n      0x0100\n      exp\n      swap1\n      div\n      0xff\n      and\n      swap1\n      dup1\n      0x03\n      add\n      sload\n      swap1\n      dup1\n      0x04\n      add\n      sload\n      swap1\n      pop\n      dup6\n      jump\t// out\n        /* \"contract/DataGuardianLogger.sol\":1264:1703  function logData(... */\n    tag_32:\n        /* \"contract/DataGuardianLogger.sol\":1414:1418  logs */\n      0x00\n        /* \"contract/DataGuardianLogger.sol\":1424:1605  Log({... */\n      mload(0x40)\n      dup1\n      0xa0\n      add\n      0x40\n      mstore\n      dup1\n        /* \"contract/DataGuardianLogger.sol\":1448:1452  user */\n      dup8\n        /* \"contract/DataGuardianLogger.sol\":1424:1605  Log({... */\n      0xffffffffffffffffffffffffffffffffffffffff\n      and\n      dup2\n      mstore\n      0x20\n      add\n        /* \"contract/DataGuardianLogger.sol\":1476:1484  dataType */\n      dup7\n      dup7\n        /* \"contract/DataGuardianLogger.sol\":1424:1605  Log({... */\n      dup1\n      dup1\n      0x1f\n      add\n      0x20\n      dup1\n      swap2\n      div\n      mul\n      0x20\n      add\n      mload(0x40)\n      swap1\n      dup2\n      add\n      0x40\n      mstore\n      dup1\n      swap4\n      swap3\n      swap2\n      swap1\n      dup2\n      dup2\n      mstore\n      0x20\n      add\n      dup4\n      dup4\n      dup1\n      dup3\n      dup5\n      calldatacopy\n      0x00\n      dup2\n      dup5\n      add\n      mstore\n      not(0x1f)\n      0x1f\n      dup3\n      add\n      and\n      swap1\n      pop\n      dup1\n      dup4\n      add\n      swap3\n      pop\n      pop\n      pop\n      pop\n      pop\n      pop\n      pop\n      dup2\n      mstore\n      0x20\n      add\n        /* \"contract/DataGuardianLogger.sol\":1508:1516  decision */\n      dup5\n        /* \"contract/DataGuardianLogger.sol\":1424:1605  Log({... */\n      iszero\n      iszero\n      dup2\n      mstore\n      0x20\n      add\n        /* \"contract/DataGuardianLogger.sol\":1543:1554  detailsHash */\n      dup4\n        /* \"contract/DataGuardianLogger.sol\":1424:1605  Log({... */\n      dup2\n      mstore\n      0x20\n      add\n        /* \"contract/DataGuardianLogger.sol\":1579:1594  block.timestamp */\n      timestamp\n        /* \"contract/DataGuardianLogger.sol\":1424:1605  Log({... */\n      dup2\n      mstore\n      pop\n        /* \"contract/DataGuardianLogger.sol\":1414:1606  logs.push(Log({... */\n      swap1\n      dup1\n      0x01\n      dup2\n      sload\n      add\n      dup1\n      dup3\n      sstore\n      dup1\n      swap2\n      pop\n      pop\n      0x01\n      swap1\n      sub\n      swap1\n      0x00\n      mstore\n      keccak256(0x00, 0x20)\n      swap1\n      0x05\n      mul\n      add\n      0x00\n      swap1\n      swap2\n      swap1\n      swap2\n      swap1\n      swap2\n      pop\n      0x00\n      dup3\n      add\n      mload\n      dup2\n      0x00\n      add\n      exp(0x0100, 0x00)\n      dup2\n      sload\n      dup2\n      0xffffffffffffffffffffffffffffffffffffffff\n      mul\n      not\n      and\n      swap1\n      dup4\n      0xffffffffffffffffffffffffffffffffffffffff\n      and\n      mul\n      or\n      swap1\n      sstore\n      pop\n      0x20\n      dup3\n      add\n      mload\n      dup2\n      0x01\n      add\n      swap1\n      dup2\n      tag_95\n      swap2\n      swap1\n      tag_96\n      jump\t// in\n    tag_95:\n      pop\n      0x40\n      dup3\n      add\n      mload\n      dup2\n      0x02\n      add\n      exp(0x0100, 0x00)\n      dup2\n      sload\n      dup2\n      0xff\n      mul\n      not\n      and\n      swap1\n      dup4\n      iszero\n      iszero\n      mul\n      or\n      swap1\n      sstore\n      pop\n      0x60\n      dup3\n      add\n      mload\n      dup2\n      0x03\n      add\n      sstore\n      0x80\n      dup3\n      add\n      mload\n      dup2\n      0x04\n      add\n      sstore\n      pop\n      pop\n        /* \"contract/DataGuardianLogger.sol\":1641:1645  user */\n      dup5\n        /* \"contract/DataGuardianLogger.sol\":1630:1696  DataLogged(user, dataType, decision, detailsHash, block.timestamp) */\n      0xffffffffffffffffffffffffffffffffffffffff\n      and\n      0x35a8f6cb0689ebeed1bb534a9a366e797fc214c74351d44558d888081cd6b168\n        /* \"contract/DataGuardianLogger.sol\":1647:1655  dataType */\n      dup6\n      dup6\n        /* \"contract/DataGuardianLogger.sol\":1657:1665  decision */\n      dup6\n        /* \"contract/DataGuardianLogger.sol\":1667:1678  detailsHash */\n      dup6\n        /* \"contract/DataGuardianLogger.sol\":1680:1695  block.timestamp */\n      timestamp\n        /* \"contract/DataGuardianLogger.sol\":1630:1696  DataLogged(user, dataType, decision, detailsHash, block.timestamp) */\n      mload(0x40)\n      tag_97\n      swap6\n      swap5\n      swap4\n      swap3\n      swap2\n      swap1\n      tag_98\n      jump\t// in\n    tag_97:\n      mload(0x40)\n      dup1\n      swap2\n      sub\n      swap1\n      log2\n        /* \"contract/DataGuardianLogger.sol\":1264:1703  function logData(... */\n      pop\n      pop\n      pop\n      pop\n      pop\n      jump\t// out\n    tag_34:\n      mload(0x40)\n      dup1\n      0xa0\n      add\n      0x40\n      mstore\n      dup1\n      and(0xffffffffffffffffffffffffffffffffffffffff, 0x00)\n      dup2\n      mstore\n      0x20\n      add\n      0x60\n      dup2\n      mstore\n      0x20\n      add\n      iszero(iszero(0x00))\n      dup2\n      mstore\n      0x20\n      add\n      0x00\n      dup1\n      not\n      and\n      dup2\n      mstore\n      0x20\n      add\n      0x00\n      dup2\n      mstore\n      pop\n      swap1\n      jump\t// out\n        /* \"#utility.yul\":88:205   */\n    tag_100:\n        /* \"#utility.yul\":197:198   */\n      0x00\n        /* \"#utility.yul\":194:195   */\n      dup1\n        /* \"#utility.yul\":187:199   */\n      revert\n        /* \"#utility.yul\":211:328   */\n    tag_101:\n        /* \"#utility.yul\":320:321   */\n      0x00\n        /* \"#utility.yul\":317:318   */\n      dup1\n        /* \"#utility.yul\":310:322   */\n      revert\n        /* \"#utility.yul\":334:411   */\n    tag_102:\n        /* \"#utility.yul\":371:378   */\n      0x00\n        /* \"#utility.yul\":400:405   */\n      dup2\n        /* \"#utility.yul\":389:405   */\n      swap1\n      pop\n        /* \"#utility.yul\":334:411   */\n      swap2\n      swap1\n      pop\n      jump\t// out\n        /* \"#utility.yul\":417:539   */\n    tag_103:\n        /* \"#utility.yul\":490:514   */\n      tag_169\n        /* \"#utility.yul\":508:513   */\n      dup2\n        /* \"#utility.yul\":490:514   */\n      tag_102\n      jump\t// in\n    tag_169:\n        /* \"#utility.yul\":483:488   */\n      dup2\n        /* \"#utility.yul\":480:515   */\n      eq\n        /* \"#utility.yul\":470:533   */\n      tag_170\n      jumpi\n        /* \"#utility.yul\":529:530   */\n      0x00\n        /* \"#utility.yul\":526:527   */\n      dup1\n        /* \"#utility.yul\":519:531   */\n      revert\n        /* \"#utility.yul\":470:533   */\n    tag_170:\n        /* \"#utility.yul\":417:539   */\n      pop\n      jump\t// out\n        /* \"#utility.yul\":545:684   */\n    tag_104:\n        /* \"#utility.yul\":591:596   */\n      0x00\n        /* \"#utility.yul\":629:635   */\n      dup2\n        /* \"#utility.yul\":616:636   */\n      calldataload\n        /* \"#utility.yul\":607:636   */\n      swap1\n      pop\n        /* \"#utility.yul\":645:678   */\n      tag_172\n        /* \"#utility.yul\":672:677   */\n      dup2\n        /* \"#utility.yul\":645:678   */\n      tag_103\n      jump\t// in\n    tag_172:\n        /* \"#utility.yul\":545:684   */\n      swap3\n      swap2\n      pop\n      pop\n      jump\t// out\n        /* \"#utility.yul\":690:1019   */\n    tag_10:\n        /* \"#utility.yul\":749:755   */\n      0x00\n        /* \"#utility.yul\":798:800   */\n      0x20\n        /* \"#utility.yul\":786:795   */\n      dup3\n        /* \"#utility.yul\":777:784   */\n      dup5\n        /* \"#utility.yul\":773:796   */\n      sub\n        /* \"#utility.yul\":769:801   */\n      slt\n        /* \"#utility.yul\":766:885   */\n      iszero\n      tag_174\n      jumpi\n        /* \"#utility.yul\":804:883   */\n      tag_175\n      tag_100\n      jump\t// in\n    tag_175:\n        /* \"#utility.yul\":766:885   */\n    tag_174:\n        /* \"#utility.yul\":924:925   */\n      0x00\n        /* \"#utility.yul\":949:1002   */\n      tag_176\n        /* \"#utility.yul\":994:1001   */\n      dup5\n        /* \"#utility.yul\":985:991   */\n      dup3\n        /* \"#utility.yul\":974:983   */\n      dup6\n        /* \"#utility.yul\":970:992   */\n      add\n        /* \"#utility.yul\":949:1002   */\n      tag_104\n      jump\t// in\n    tag_176:\n        /* \"#utility.yul\":939:1002   */\n      swap2\n      pop\n        /* \"#utility.yul\":895:1012   */\n      pop\n        /* \"#utility.yul\":690:1019   */\n      swap3\n      swap2\n      pop\n      pop\n      jump\t// out\n        /* \"#utility.yul\":1025:1151   */\n    tag_105:\n        /* \"#utility.yul\":1062:1069   */\n      0x00\n        /* \"#utility.yul\":1102:1144   */\n      0xffffffffffffffffffffffffffffffffffffffff\n        /* \"#utility.yul\":1095:1100   */\n      dup3\n        /* \"#utility.yul\":1091:1145   */\n      and\n        /* \"#utility.yul\":1080:1145   */\n      swap1\n      pop\n        /* \"#utility.yul\":1025:1151   */\n      swap2\n      swap1\n      pop\n      jump\t// out\n        /* \"#utility.yul\":1157:1253   */\n    tag_106:\n        /* \"#utility.yul\":1194:1201   */\n      0x00\n        /* \"#utility.yul\":1223:1247   */\n      tag_179\n        /* \"#utility.yul\":1241:1246   */\n      dup3\n        /* \"#utility.yul\":1223:1247   */\n      tag_105\n      jump\t// in\n    tag_179:\n        /* \"#utility.yul\":1212:1247   */\n      swap1\n      pop\n        /* \"#utility.yul\":1157:1253   */\n      swap2\n      swap1\n      pop\n      jump\t// out\n        /* \"#utility.yul\":1259:1367   */\n    tag_107:\n        /* \"#utility.yul\":1336:1360   */\n      tag_181\n        /* \"#utility.yul\":1354:1359   */\n      dup2\n        /* \"#utility.yul\":1336:1360   */\n      tag_106\n      jump\t// in\n    tag_181:\n        /* \"#utility.yul\":1331:1334   */\n      dup3\n        /* \"#utility.yul\":1324:1361   */\n      mstore\n        /* \"#utility.yul\":1259:1367   */\n      pop\n      pop\n      jump\t// out\n        /* \"#utility.yul\":1373:1472   */\n    tag_108:\n        /* \"#utility.yul\":1425:1431   */\n      0x00\n        /* \"#utility.yul\":1459:1464   */\n      dup2\n        /* \"#utility.yul\":1453:1465   */\n      mload\n        /* \"#utility.yul\":1443:1465   */\n      swap1\n      pop\n        /* \"#utility.yul\":1373:1472   */\n      swap2\n      swap1\n      pop\n      jump\t// out\n        /* \"#utility.yul\":1478:1637   */\n    tag_109:\n        /* \"#utility.yul\":1552:1563   */\n      0x00\n        /* \"#utility.yul\":1586:1592   */\n      dup3\n        /* \"#utility.yul\":1581:1584   */\n      dup3\n        /* \"#utility.yul\":1574:1593   */\n      mstore\n        /* \"#utility.yul\":1626:1630   */\n      0x20\n        /* \"#utility.yul\":1621:1624   */\n      dup3\n        /* \"#utility.yul\":1617:1631   */\n      add\n        /* \"#utility.yul\":1602:1631   */\n      swap1\n      pop\n        /* \"#utility.yul\":1478:1637   */\n      swap3\n      swap2\n      pop\n      pop\n      jump\t// out\n        /* \"#utility.yul\":1643:1889   */\n    tag_110:\n        /* \"#utility.yul\":1724:1725   */\n      0x00\n        /* \"#utility.yul\":1734:1847   */\n    tag_185:\n        /* \"#utility.yul\":1748:1754   */\n      dup4\n        /* \"#utility.yul\":1745:1746   */\n      dup2\n        /* \"#utility.yul\":1742:1755   */\n      lt\n        /* \"#utility.yul\":1734:1847   */\n      iszero\n      tag_187\n      jumpi\n        /* \"#utility.yul\":1833:1834   */\n      dup1\n        /* \"#utility.yul\":1828:1831   */\n      dup3\n        /* \"#utility.yul\":1824:1835   */\n      add\n        /* \"#utility.yul\":1818:1836   */\n      mload\n        /* \"#utility.yul\":1814:1815   */\n      dup2\n        /* \"#utility.yul\":1809:1812   */\n      dup5\n        /* \"#utility.yul\":1805:1816   */\n      add\n        /* \"#utility.yul\":1798:1837   */\n      mstore\n        /* \"#utility.yul\":1770:1772   */\n      0x20\n        /* \"#utility.yul\":1767:1768   */\n      dup2\n        /* \"#utility.yul\":1763:1773   */\n      add\n        /* \"#utility.yul\":1758:1773   */\n      swap1\n      pop\n        /* \"#utility.yul\":1734:1847   */\n      jump(tag_185)\n    tag_187:\n        /* \"#utility.yul\":1881:1882   */\n      0x00\n        /* \"#utility.yul\":1872:1878   */\n      dup5\n        /* \"#utility.yul\":1867:1870   */\n      dup5\n        /* \"#utility.yul\":1863:1879   */\n      add\n        /* \"#utility.yul\":1856:1883   */\n      mstore\n        /* \"#utility.yul\":1705:1889   */\n      pop\n        /* \"#utility.yul\":1643:1889   */\n      pop\n      pop\n      pop\n      jump\t// out\n        /* \"#utility.yul\":1895:1997   */\n    tag_111:\n        /* \"#utility.yul\":1936:1942   */\n      0x00\n        /* \"#utility.yul\":1987:1989   */\n      0x1f\n        /* \"#utility.yul\":1983:1990   */\n      not\n        /* \"#utility.yul\":1978:1980   */\n      0x1f\n        /* \"#utility.yul\":1971:1976   */\n      dup4\n        /* \"#utility.yul\":1967:1981   */\n      add\n        /* \"#utility.yul\":1963:1991   */\n      and\n        /* \"#utility.yul\":1953:1991   */\n      swap1\n      pop\n        /* \"#utility.yul\":1895:1997   */\n      swap2\n      swap1\n      pop\n      jump\t// out\n        /* \"#utility.yul\":2003:2360   */\n    tag_112:\n        /* \"#utility.yul\":2081:2084   */\n      0x00\n        /* \"#utility.yul\":2109:2148   */\n      tag_190\n        /* \"#utility.yul\":2142:2147   */\n      dup3\n        /* \"#utility.yul\":2109:2148   */\n      tag_108\n      jump\t// in\n    tag_190:\n        /* \"#utility.yul\":2164:2225   */\n      tag_191\n        /* \"#utility.yul\":2218:2224   */\n      dup2\n        /* \"#utility.yul\":2213:2216   */\n      dup6\n        /* \"#utility.yul\":2164:2225   */\n      tag_109\n      jump\t// in\n    tag_191:\n        /* \"#utility.yul\":2157:2225   */\n      swap4\n      pop\n        /* \"#utility.yul\":2234:2299   */\n      tag_192\n        /* \"#utility.yul\":2292:2298   */\n      dup2\n        /* \"#utility.yul\":2287:2290   */\n      dup6\n        /* \"#utility.yul\":2280:2284   */\n      0x20\n        /* \"#utility.yul\":2273:2278   */\n      dup7\n        /* \"#utility.yul\":2269:2285   */\n      add\n        /* \"#utility.yul\":2234:2299   */\n      tag_110\n      jump\t// in\n    tag_192:\n        /* \"#utility.yul\":2324:2353   */\n      tag_193\n        /* \"#utility.yul\":2346:2352   */\n      dup2\n        /* \"#utility.yul\":2324:2353   */\n      tag_111\n      jump\t// in\n    tag_193:\n        /* \"#utility.yul\":2319:2322   */\n      dup5\n        /* \"#utility.yul\":2315:2354   */\n      add\n        /* \"#utility.yul\":2308:2354   */\n      swap2\n      pop\n        /* \"#utility.yul\":2085:2360   */\n      pop\n        /* \"#utility.yul\":2003:2360   */\n      swap3\n      swap2\n      pop\n      pop\n      jump\t// out\n        /* \"#utility.yul\":2366:2456   */\n    tag_113:\n        /* \"#utility.yul\":2400:2407   */\n      0x00\n        /* \"#utility.yul\":2443:2448   */\n      dup2\n        /* \"#utility.yul\":2436:2449   */\n      iszero\n        /* \"#utility.yul\":2429:2450   */\n      iszero\n        /* \"#utility.yul\":2418:2450   */\n      swap1\n      pop\n        /* \"#utility.yul\":2366:2456   */\n      swap2\n      swap1\n      pop\n      jump\t// out\n        /* \"#utility.yul\":2462:2561   */\n    tag_114:\n        /* \"#utility.yul\":2533:2554   */\n      tag_196\n        /* \"#utility.yul\":2548:2553   */\n      dup2\n        /* \"#utility.yul\":2533:2554   */\n      tag_113\n      jump\t// in\n    tag_196:\n        /* \"#utility.yul\":2528:2531   */\n      dup3\n        /* \"#utility.yul\":2521:2555   */\n      mstore\n        /* \"#utility.yul\":2462:2561   */\n      pop\n      pop\n      jump\t// out\n        /* \"#utility.yul\":2567:2644   */\n    tag_115:\n        /* \"#utility.yul\":2604:2611   */\n      0x00\n        /* \"#utility.yul\":2633:2638   */\n      dup2\n        /* \"#utility.yul\":2622:2638   */\n      swap1\n      pop\n        /* \"#utility.yul\":2567:2644   */\n      swap2\n      swap1\n      pop\n      jump\t// out\n        /* \"#utility.yul\":2650:2758   */\n    tag_116:\n        /* \"#utility.yul\":2727:2751   */\n      tag_199\n        /* \"#utility.yul\":2745:2750   */\n      dup2\n        /* \"#utility.yul\":2727:2751   */\n      tag_115\n      jump\t// in\n    tag_199:\n        /* \"#utility.yul\":2722:2725   */\n      dup3\n        /* \"#utility.yul\":2715:2752   */\n      mstore\n        /* \"#utility.yul\":2650:2758   */\n      pop\n      pop\n      jump\t// out\n        /* \"#utility.yul\":2764:2872   */\n    tag_117:\n        /* \"#utility.yul\":2841:2865   */\n      tag_201\n        /* \"#utility.yul\":2859:2864   */\n      dup2\n        /* \"#utility.yul\":2841:2865   */\n      tag_102\n      jump\t// in\n    tag_201:\n        /* \"#utility.yul\":2836:2839   */\n      dup3\n        /* \"#utility.yul\":2829:2866   */\n      mstore\n        /* \"#utility.yul\":2764:2872   */\n      pop\n      pop\n      jump\t// out\n        /* \"#utility.yul\":2948:4078   */\n    tag_118:\n        /* \"#utility.yul\":3055:3058   */\n      0x00\n        /* \"#utility.yul\":3091:3095   */\n      0xa0\n        /* \"#utility.yul\":3086:3089   */\n      dup4\n        /* \"#utility.yul\":3082:3096   */\n      add\n        /* \"#utility.yul\":3178:3182   */\n      0x00\n        /* \"#utility.yul\":3171:3176   */\n      dup4\n        /* \"#utility.yul\":3167:3183   */\n      add\n        /* \"#utility.yul\":3161:3184   */\n      mload\n        /* \"#utility.yul\":3197:3260   */\n      tag_203\n        /* \"#utility.yul\":3254:3258   */\n      0x00\n        /* \"#utility.yul\":3249:3252   */\n      dup7\n        /* \"#utility.yul\":3245:3259   */\n      add\n        /* \"#utility.yul\":3231:3243   */\n      dup3\n        /* \"#utility.yul\":3197:3260   */\n      tag_107\n      jump\t// in\n    tag_203:\n        /* \"#utility.yul\":3106:3270   */\n      pop\n        /* \"#utility.yul\":3356:3360   */\n      0x20\n        /* \"#utility.yul\":3349:3354   */\n      dup4\n        /* \"#utility.yul\":3345:3361   */\n      add\n        /* \"#utility.yul\":3339:3362   */\n      mload\n        /* \"#utility.yul\":3409:3412   */\n      dup5\n        /* \"#utility.yul\":3403:3407   */\n      dup3\n        /* \"#utility.yul\":3399:3413   */\n      sub\n        /* \"#utility.yul\":3392:3396   */\n      0x20\n        /* \"#utility.yul\":3387:3390   */\n      dup7\n        /* \"#utility.yul\":3383:3397   */\n      add\n        /* \"#utility.yul\":3376:3414   */\n      mstore\n        /* \"#utility.yul\":3435:3508   */\n      tag_204\n        /* \"#utility.yul\":3503:3507   */\n      dup3\n        /* \"#utility.yul\":3489:3501   */\n      dup3\n        /* \"#utility.yul\":3435:3508   */\n      tag_112\n      jump\t// in\n    tag_204:\n        /* \"#utility.yul\":3427:3508   */\n      swap2\n      pop\n        /* \"#utility.yul\":3280:3519   */\n      pop\n        /* \"#utility.yul\":3605:3609   */\n      0x40\n        /* \"#utility.yul\":3598:3603   */\n      dup4\n        /* \"#utility.yul\":3594:3610   */\n      add\n        /* \"#utility.yul\":3588:3611   */\n      mload\n        /* \"#utility.yul\":3624:3681   */\n      tag_205\n        /* \"#utility.yul\":3675:3679   */\n      0x40\n        /* \"#utility.yul\":3670:3673   */\n      dup7\n        /* \"#utility.yul\":3666:3680   */\n      add\n        /* \"#utility.yul\":3652:3664   */\n      dup3\n        /* \"#utility.yul\":3624:3681   */\n      tag_114\n      jump\t// in\n    tag_205:\n        /* \"#utility.yul\":3529:3691   */\n      pop\n        /* \"#utility.yul\":3780:3784   */\n      0x60\n        /* \"#utility.yul\":3773:3778   */\n      dup4\n        /* \"#utility.yul\":3769:3785   */\n      add\n        /* \"#utility.yul\":3763:3786   */\n      mload\n        /* \"#utility.yul\":3799:3862   */\n      tag_206\n        /* \"#utility.yul\":3856:3860   */\n      0x60\n        /* \"#utility.yul\":3851:3854   */\n      dup7\n        /* \"#utility.yul\":3847:3861   */\n      add\n        /* \"#utility.yul\":3833:3845   */\n      dup3\n        /* \"#utility.yul\":3799:3862   */\n      tag_116\n      jump\t// in\n    tag_206:\n        /* \"#utility.yul\":3701:3872   */\n      pop\n        /* \"#utility.yul\":3959:3963   */\n      0x80\n        /* \"#utility.yul\":3952:3957   */\n      dup4\n        /* \"#utility.yul\":3948:3964   */\n      add\n        /* \"#utility.yul\":3942:3965   */\n      mload\n        /* \"#utility.yul\":3978:4041   */\n      tag_207\n        /* \"#utility.yul\":4035:4039   */\n      0x80\n        /* \"#utility.yul\":4030:4033   */\n      dup7\n        /* \"#utility.yul\":4026:4040   */\n      add\n        /* \"#utility.yul\":4012:4024   */\n      dup3\n        /* \"#utility.yul\":3978:4041   */\n      tag_117\n      jump\t// in\n    tag_207:\n        /* \"#utility.yul\":3882:4051   */\n      pop\n        /* \"#utility.yul\":4068:4072   */\n      dup1\n        /* \"#utility.yul\":4061:4072   */\n      swap2\n      pop\n        /* \"#utility.yul\":3060:4078   */\n      pop\n        /* \"#utility.yul\":2948:4078   */\n      swap3\n      swap2\n      pop\n      pop\n      jump\t// out\n        /* \"#utility.yul\":4084:4433   */\n    tag_13:\n        /* \"#utility.yul\":4215:4219   */\n      0x00\n        /* \"#utility.yul\":4253:4255   */\n      0x20\n        /* \"#utility.yul\":4242:4251   */\n      dup3\n        /* \"#utility.yul\":4238:4256   */\n      add\n        /* \"#utility.yul\":4230:4256   */\n      swap1\n      pop\n        /* \"#utility.yul\":4302:4311   */\n      dup2\n        /* \"#utility.yul\":4296:4300   */\n      dup2\n        /* \"#utility.yul\":4292:4312   */\n      sub\n        /* \"#utility.yul\":4288:4289   */\n      0x00\n        /* \"#utility.yul\":4277:4286   */\n      dup4\n        /* \"#utility.yul\":4273:4290   */\n      add\n        /* \"#utility.yul\":4266:4313   */\n      mstore\n        /* \"#utility.yul\":4330:4426   */\n      tag_209\n        /* \"#utility.yul\":4421:4425   */\n      dup2\n        /* \"#utility.yul\":4412:4418   */\n      dup5\n        /* \"#utility.yul\":4330:4426   */\n      tag_118\n      jump\t// in\n    tag_209:\n        /* \"#utility.yul\":4322:4426   */\n      swap1\n      pop\n        /* \"#utility.yul\":4084:4433   */\n      swap3\n      swap2\n      pop\n      pop\n      jump\t// out\n        /* \"#utility.yul\":4439:4561   */\n    tag_119:\n        /* \"#utility.yul\":4512:4536   */\n      tag_211\n        /* \"#utility.yul\":4530:4535   */\n      dup2\n        /* \"#utility.yul\":4512:4536   */\n      tag_106\n      jump\t// in\n    tag_211:\n        /* \"#utility.yul\":4505:4510   */\n      dup2\n        /* \"#utility.yul\":4502:4537   */\n      eq\n        /* \"#utility.yul\":4492:4555   */\n      tag_212\n      jumpi\n        /* \"#utility.yul\":4551:4552   */\n      0x00\n        /* \"#utility.yul\":4548:4549   */\n      dup1\n        /* \"#utility.yul\":4541:4553   */\n      revert\n        /* \"#utility.yul\":4492:4555   */\n    tag_212:\n        /* \"#utility.yul\":4439:4561   */\n      pop\n      jump\t// out\n        /* \"#utility.yul\":4567:4706   */\n    tag_120:\n        /* \"#utility.yul\":4613:4618   */\n      0x00\n        /* \"#utility.yul\":4651:4657   */\n      dup2\n        /* \"#utility.yul\":4638:4658   */\n      calldataload\n        /* \"#utility.yul\":4629:4658   */\n      swap1\n      pop\n        /* \"#utility.yul\":4667:4700   */\n      tag_214\n        /* \"#utility.yul\":4694:4699   */\n      dup2\n        /* \"#utility.yul\":4667:4700   */\n      tag_119\n      jump\t// in\n    tag_214:\n        /* \"#utility.yul\":4567:4706   */\n      swap3\n      swap2\n      pop\n      pop\n      jump\t// out\n        /* \"#utility.yul\":4712:5041   */\n    tag_16:\n        /* \"#utility.yul\":4771:4777   */\n      0x00\n        /* \"#utility.yul\":4820:4822   */\n      0x20\n        /* \"#utility.yul\":4808:4817   */\n      dup3\n        /* \"#utility.yul\":4799:4806   */\n      dup5\n        /* \"#utility.yul\":4795:4818   */\n      sub\n        /* \"#utility.yul\":4791:4823   */\n      slt\n        /* \"#utility.yul\":4788:4907   */\n      iszero\n      tag_216\n      jumpi\n        /* \"#utility.yul\":4826:4905   */\n      tag_217\n      tag_100\n      jump\t// in\n    tag_217:\n        /* \"#utility.yul\":4788:4907   */\n    tag_216:\n        /* \"#utility.yul\":4946:4947   */\n      0x00\n        /* \"#utility.yul\":4971:5024   */\n      tag_218\n        /* \"#utility.yul\":5016:5023   */\n      dup5\n        /* \"#utility.yul\":5007:5013   */\n      dup3\n        /* \"#utility.yul\":4996:5005   */\n      dup6\n        /* \"#utility.yul\":4992:5014   */\n      add\n        /* \"#utility.yul\":4971:5024   */\n      tag_120\n      jump\t// in\n    tag_218:\n        /* \"#utility.yul\":4961:5024   */\n      swap2\n      pop\n        /* \"#utility.yul\":4917:5034   */\n      pop\n        /* \"#utility.yul\":4712:5041   */\n      swap3\n      swap2\n      pop\n      pop\n      jump\t// out\n        /* \"#utility.yul\":5047:5180   */\n    tag_121:\n        /* \"#utility.yul\":5133:5139   */\n      0x00\n        /* \"#utility.yul\":5167:5172   */\n      dup2\n        /* \"#utility.yul\":5161:5173   */\n      mload\n        /* \"#utility.yul\":5151:5173   */\n      swap1\n      pop\n        /* \"#utility.yul\":5047:5180   */\n      swap2\n      swap1\n      pop\n      jump\t// out\n        /* \"#utility.yul\":5186:5389   */\n    tag_122:\n        /* \"#utility.yul\":5304:5315   */\n      0x00\n        /* \"#utility.yul\":5338:5344   */\n      dup3\n        /* \"#utility.yul\":5333:5336   */\n      dup3\n        /* \"#utility.yul\":5326:5345   */\n      mstore\n        /* \"#utility.yul\":5378:5382   */\n      0x20\n        /* \"#utility.yul\":5373:5376   */\n      dup3\n        /* \"#utility.yul\":5369:5383   */\n      add\n        /* \"#utility.yul\":5354:5383   */\n      swap1\n      pop\n        /* \"#utility.yul\":5186:5389   */\n      swap3\n      swap2\n      pop\n      pop\n      jump\t// out\n        /* \"#utility.yul\":5395:5546   */\n    tag_123:\n        /* \"#utility.yul\":5481:5485   */\n      0x00\n        /* \"#utility.yul\":5504:5507   */\n      dup2\n        /* \"#utility.yul\":5496:5507   */\n      swap1\n      pop\n        /* \"#utility.yul\":5534:5538   */\n      0x20\n        /* \"#utility.yul\":5529:5532   */\n      dup3\n        /* \"#utility.yul\":5525:5539   */\n      add\n        /* \"#utility.yul\":5517:5539   */\n      swap1\n      pop\n        /* \"#utility.yul\":5395:5546   */\n      swap2\n      swap1\n      pop\n      jump\t// out\n        /* \"#utility.yul\":5622:6742   */\n    tag_124:\n        /* \"#utility.yul\":5719:5722   */\n      0x00\n        /* \"#utility.yul\":5755:5759   */\n      0xa0\n        /* \"#utility.yul\":5750:5753   */\n      dup4\n        /* \"#utility.yul\":5746:5760   */\n      add\n        /* \"#utility.yul\":5842:5846   */\n      0x00\n        /* \"#utility.yul\":5835:5840   */\n      dup4\n        /* \"#utility.yul\":5831:5847   */\n      add\n        /* \"#utility.yul\":5825:5848   */\n      mload\n        /* \"#utility.yul\":5861:5924   */\n      tag_223\n        /* \"#utility.yul\":5918:5922   */\n      0x00\n        /* \"#utility.yul\":5913:5916   */\n      dup7\n        /* \"#utility.yul\":5909:5923   */\n      add\n        /* \"#utility.yul\":5895:5907   */\n      dup3\n        /* \"#utility.yul\":5861:5924   */\n      tag_107\n      jump\t// in\n    tag_223:\n        /* \"#utility.yul\":5770:5934   */\n      pop\n        /* \"#utility.yul\":6020:6024   */\n      0x20\n        /* \"#utility.yul\":6013:6018   */\n      dup4\n        /* \"#utility.yul\":6009:6025   */\n      add\n        /* \"#utility.yul\":6003:6026   */\n      mload\n        /* \"#utility.yul\":6073:6076   */\n      dup5\n        /* \"#utility.yul\":6067:6071   */\n      dup3\n        /* \"#utility.yul\":6063:6077   */\n      sub\n        /* \"#utility.yul\":6056:6060   */\n      0x20\n        /* \"#utility.yul\":6051:6054   */\n      dup7\n        /* \"#utility.yul\":6047:6061   */\n      add\n        /* \"#utility.yul\":6040:6078   */\n      mstore\n        /* \"#utility.yul\":6099:6172   */\n      tag_224\n        /* \"#utility.yul\":6167:6171   */\n      dup3\n        /* \"#utility.yul\":6153:6165   */\n      dup3\n        /* \"#utility.yul\":6099:6172   */\n      tag_112\n      jump\t// in\n    tag_224:\n        /* \"#utility.yul\":6091:6172   */\n      swap2\n      pop\n        /* \"#utility.yul\":5944:6183   */\n      pop\n        /* \"#utility.yul\":6269:6273   */\n      0x40\n        /* \"#utility.yul\":6262:6267   */\n      dup4\n        /* \"#utility.yul\":6258:6274   */\n      add\n        /* \"#utility.yul\":6252:6275   */\n      mload\n        /* \"#utility.yul\":6288:6345   */\n      tag_225\n        /* \"#utility.yul\":6339:6343   */\n      0x40\n        /* \"#utility.yul\":6334:6337   */\n      dup7\n        /* \"#utility.yul\":6330:6344   */\n      add\n        /* \"#utility.yul\":6316:6328   */\n      dup3\n        /* \"#utility.yul\":6288:6345   */\n      tag_114\n      jump\t// in\n    tag_225:\n        /* \"#utility.yul\":6193:6355   */\n      pop\n        /* \"#utility.yul\":6444:6448   */\n      0x60\n        /* \"#utility.yul\":6437:6442   */\n      dup4\n        /* \"#utility.yul\":6433:6449   */\n      add\n        /* \"#utility.yul\":6427:6450   */\n      mload\n        /* \"#utility.yul\":6463:6526   */\n      tag_226\n        /* \"#utility.yul\":6520:6524   */\n      0x60\n        /* \"#utility.yul\":6515:6518   */\n      dup7\n        /* \"#utility.yul\":6511:6525   */\n      add\n        /* \"#utility.yul\":6497:6509   */\n      dup3\n        /* \"#utility.yul\":6463:6526   */\n      tag_116\n      jump\t// in\n    tag_226:\n        /* \"#utility.yul\":6365:6536   */\n      pop\n        /* \"#utility.yul\":6623:6627   */\n      0x80\n        /* \"#utility.yul\":6616:6621   */\n      dup4\n        /* \"#utility.yul\":6612:6628   */\n      add\n        /* \"#utility.yul\":6606:6629   */\n      mload\n        /* \"#utility.yul\":6642:6705   */\n      tag_227\n        /* \"#utility.yul\":6699:6703   */\n      0x80\n        /* \"#utility.yul\":6694:6697   */\n      dup7\n        /* \"#utility.yul\":6690:6704   */\n      add\n        /* \"#utility.yul\":6676:6688   */\n      dup3\n        /* \"#utility.yul\":6642:6705   */\n      tag_117\n      jump\t// in\n    tag_227:\n        /* \"#utility.yul\":6546:6715   */\n      pop\n        /* \"#utility.yul\":6732:6736   */\n      dup1\n        /* \"#utility.yul\":6725:6736   */\n      swap2\n      pop\n        /* \"#utility.yul\":5724:6742   */\n      pop\n        /* \"#utility.yul\":5622:6742   */\n      swap3\n      swap2\n      pop\n      pop\n      jump\t// out\n        /* \"#utility.yul\":6748:6980   */\n    tag_125:\n        /* \"#utility.yul\":6855:6865   */\n      0x00\n        /* \"#utility.yul\":6890:6974   */\n      tag_229\n        /* \"#utility.yul\":6970:6973   */\n      dup4\n        /* \"#utility.yul\":6962:6968   */\n      dup4\n        /* \"#utility.yul\":6890:6974   */\n      tag_124\n      jump\t// in\n    tag_229:\n        /* \"#utility.yul\":6876:6974   */\n      swap1\n      pop\n        /* \"#utility.yul\":6748:6980   */\n      swap3\n      swap2\n      pop\n      pop\n      jump\t// out\n        /* \"#utility.yul\":6986:7118   */\n    tag_126:\n        /* \"#utility.yul\":7075:7079   */\n      0x00\n        /* \"#utility.yul\":7107:7111   */\n      0x20\n        /* \"#utility.yul\":7102:7105   */\n      dup3\n        /* \"#utility.yul\":7098:7112   */\n      add\n        /* \"#utility.yul\":7090:7112   */\n      swap1\n      pop\n        /* \"#utility.yul\":6986:7118   */\n      swap2\n      swap1\n      pop\n      jump\t// out\n        /* \"#utility.yul\":7198:8261   */\n    tag_127:\n        /* \"#utility.yul\":7355:7358   */\n      0x00\n        /* \"#utility.yul\":7384:7457   */\n      tag_232\n        /* \"#utility.yul\":7451:7456   */\n      dup3\n        /* \"#utility.yul\":7384:7457   */\n      tag_121\n      jump\t// in\n    tag_232:\n        /* \"#utility.yul\":7473:7578   */\n      tag_233\n        /* \"#utility.yul\":7571:7577   */\n      dup2\n        /* \"#utility.yul\":7566:7569   */\n      dup6\n        /* \"#utility.yul\":7473:7578   */\n      tag_122\n      jump\t// in\n    tag_233:\n        /* \"#utility.yul\":7466:7578   */\n      swap4\n      pop\n        /* \"#utility.yul\":7604:7607   */\n      dup4\n        /* \"#utility.yul\":7649:7653   */\n      0x20\n        /* \"#utility.yul\":7641:7647   */\n      dup3\n        /* \"#utility.yul\":7637:7654   */\n      mul\n        /* \"#utility.yul\":7632:7635   */\n      dup6\n        /* \"#utility.yul\":7628:7655   */\n      add\n        /* \"#utility.yul\":7679:7754   */\n      tag_234\n        /* \"#utility.yul\":7748:7753   */\n      dup6\n        /* \"#utility.yul\":7679:7754   */\n      tag_123\n      jump\t// in\n    tag_234:\n        /* \"#utility.yul\":7777:7784   */\n      dup1\n        /* \"#utility.yul\":7808:7809   */\n      0x00\n        /* \"#utility.yul\":7793:8216   */\n    tag_235:\n        /* \"#utility.yul\":7818:7824   */\n      dup6\n        /* \"#utility.yul\":7815:7816   */\n      dup2\n        /* \"#utility.yul\":7812:7825   */\n      lt\n        /* \"#utility.yul\":7793:8216   */\n      iszero\n      tag_237\n      jumpi\n        /* \"#utility.yul\":7889:7898   */\n      dup5\n        /* \"#utility.yul\":7883:7887   */\n      dup5\n        /* \"#utility.yul\":7879:7899   */\n      sub\n        /* \"#utility.yul\":7874:7877   */\n      dup10\n        /* \"#utility.yul\":7867:7900   */\n      mstore\n        /* \"#utility.yul\":7940:7946   */\n      dup2\n        /* \"#utility.yul\":7934:7947   */\n      mload\n        /* \"#utility.yul\":7968:8070   */\n      tag_238\n        /* \"#utility.yul\":8065:8069   */\n      dup6\n        /* \"#utility.yul\":8050:8063   */\n      dup3\n        /* \"#utility.yul\":7968:8070   */\n      tag_125\n      jump\t// in\n    tag_238:\n        /* \"#utility.yul\":7960:8070   */\n      swap5\n      pop\n        /* \"#utility.yul\":8093:8172   */\n      tag_239\n        /* \"#utility.yul\":8165:8171   */\n      dup4\n        /* \"#utility.yul\":8093:8172   */\n      tag_126\n      jump\t// in\n    tag_239:\n        /* \"#utility.yul\":8083:8172   */\n      swap3\n      pop\n        /* \"#utility.yul\":8201:8205   */\n      0x20\n        /* \"#utility.yul\":8196:8199   */\n      dup11\n        /* \"#utility.yul\":8192:8206   */\n      add\n        /* \"#utility.yul\":8185:8206   */\n      swap10\n      pop\n        /* \"#utility.yul\":7853:8216   */\n      pop\n        /* \"#utility.yul\":7840:7841   */\n      0x01\n        /* \"#utility.yul\":7837:7838   */\n      dup2\n        /* \"#utility.yul\":7833:7842   */\n      add\n        /* \"#utility.yul\":7828:7842   */\n      swap1\n      pop\n        /* \"#utility.yul\":7793:8216   */\n      jump(tag_235)\n    tag_237:\n        /* \"#utility.yul\":7797:7811   */\n      pop\n        /* \"#utility.yul\":8232:8236   */\n      dup3\n        /* \"#utility.yul\":8225:8236   */\n      swap8\n      pop\n        /* \"#utility.yul\":8252:8255   */\n      dup8\n        /* \"#utility.yul\":8245:8255   */\n      swap6\n      pop\n        /* \"#utility.yul\":7360:8261   */\n      pop\n      pop\n      pop\n      pop\n      pop\n        /* \"#utility.yul\":7198:8261   */\n      swap3\n      swap2\n      pop\n      pop\n      jump\t// out\n        /* \"#utility.yul\":8267:8716   */\n    tag_19:\n        /* \"#utility.yul\":8448:8452   */\n      0x00\n        /* \"#utility.yul\":8486:8488   */\n      0x20\n        /* \"#utility.yul\":8475:8484   */\n      dup3\n        /* \"#utility.yul\":8471:8489   */\n      add\n        /* \"#utility.yul\":8463:8489   */\n      swap1\n      pop\n        /* \"#utility.yul\":8535:8544   */\n      dup2\n        /* \"#utility.yul\":8529:8533   */\n      dup2\n        /* \"#utility.yul\":8525:8545   */\n      sub\n        /* \"#utility.yul\":8521:8522   */\n      0x00\n        /* \"#utility.yul\":8510:8519   */\n      dup4\n        /* \"#utility.yul\":8506:8523   */\n      add\n        /* \"#utility.yul\":8499:8546   */\n      mstore\n        /* \"#utility.yul\":8563:8709   */\n      tag_241\n        /* \"#utility.yul\":8704:8708   */\n      dup2\n        /* \"#utility.yul\":8695:8701   */\n      dup5\n        /* \"#utility.yul\":8563:8709   */\n      tag_127\n      jump\t// in\n    tag_241:\n        /* \"#utility.yul\":8555:8709   */\n      swap1\n      pop\n        /* \"#utility.yul\":8267:8716   */\n      swap3\n      swap2\n      pop\n      pop\n      jump\t// out\n        /* \"#utility.yul\":8722:8840   */\n    tag_128:\n        /* \"#utility.yul\":8809:8833   */\n      tag_243\n        /* \"#utility.yul\":8827:8832   */\n      dup2\n        /* \"#utility.yul\":8809:8833   */\n      tag_102\n      jump\t// in\n    tag_243:\n        /* \"#utility.yul\":8804:8807   */\n      dup3\n        /* \"#utility.yul\":8797:8834   */\n      mstore\n        /* \"#utility.yul\":8722:8840   */\n      pop\n      pop\n      jump\t// out\n        /* \"#utility.yul\":8846:9068   */\n    tag_23:\n        /* \"#utility.yul\":8939:8943   */\n      0x00\n        /* \"#utility.yul\":8977:8979   */\n      0x20\n        /* \"#utility.yul\":8966:8975   */\n      dup3\n        /* \"#utility.yul\":8962:8980   */\n      add\n        /* \"#utility.yul\":8954:8980   */\n      swap1\n      pop\n        /* \"#utility.yul\":8990:9061   */\n      tag_245\n        /* \"#utility.yul\":9058:9059   */\n      0x00\n        /* \"#utility.yul\":9047:9056   */\n      dup4\n        /* \"#utility.yul\":9043:9060   */\n      add\n        /* \"#utility.yul\":9034:9040   */\n      dup5\n        /* \"#utility.yul\":8990:9061   */\n      tag_128\n      jump\t// in\n    tag_245:\n        /* \"#utility.yul\":8846:9068   */\n      swap3\n      swap2\n      pop\n      pop\n      jump\t// out\n        /* \"#utility.yul\":9074:9192   */\n    tag_129:\n        /* \"#utility.yul\":9161:9185   */\n      tag_247\n        /* \"#utility.yul\":9179:9184   */\n      dup2\n        /* \"#utility.yul\":9161:9185   */\n      tag_106\n      jump\t// in\n    tag_247:\n        /* \"#utility.yul\":9156:9159   */\n      dup3\n        /* \"#utility.yul\":9149:9186   */\n      mstore\n        /* \"#utility.yul\":9074:9192   */\n      pop\n      pop\n      jump\t// out\n        /* \"#utility.yul\":9198:9367   */\n    tag_130:\n        /* \"#utility.yul\":9282:9293   */\n      0x00\n        /* \"#utility.yul\":9316:9322   */\n      dup3\n        /* \"#utility.yul\":9311:9314   */\n      dup3\n        /* \"#utility.yul\":9304:9323   */\n      mstore\n        /* \"#utility.yul\":9356:9360   */\n      0x20\n        /* \"#utility.yul\":9351:9354   */\n      dup3\n        /* \"#utility.yul\":9347:9361   */\n      add\n        /* \"#utility.yul\":9332:9361   */\n      swap1\n      pop\n        /* \"#utility.yul\":9198:9367   */\n      swap3\n      swap2\n      pop\n      pop\n      jump\t// out\n        /* \"#utility.yul\":9373:9750   */\n    tag_131:\n        /* \"#utility.yul\":9461:9464   */\n      0x00\n        /* \"#utility.yul\":9489:9528   */\n      tag_250\n        /* \"#utility.yul\":9522:9527   */\n      dup3\n        /* \"#utility.yul\":9489:9528   */\n      tag_108\n      jump\t// in\n    tag_250:\n        /* \"#utility.yul\":9544:9615   */\n      tag_251\n        /* \"#utility.yul\":9608:9614   */\n      dup2\n        /* \"#utility.yul\":9603:9606   */\n      dup6\n        /* \"#utility.yul\":9544:9615   */\n      tag_130\n      jump\t// in\n    tag_251:\n        /* \"#utility.yul\":9537:9615   */\n      swap4\n      pop\n        /* \"#utility.yul\":9624:9689   */\n      tag_252\n        /* \"#utility.yul\":9682:9688   */\n      dup2\n        /* \"#utility.yul\":9677:9680   */\n      dup6\n        /* \"#utility.yul\":9670:9674   */\n      0x20\n        /* \"#utility.yul\":9663:9668   */\n      dup7\n        /* \"#utility.yul\":9659:9675   */\n      add\n        /* \"#utility.yul\":9624:9689   */\n      tag_110\n      jump\t// in\n    tag_252:\n        /* \"#utility.yul\":9714:9743   */\n      tag_253\n        /* \"#utility.yul\":9736:9742   */\n      dup2\n        /* \"#utility.yul\":9714:9743   */\n      tag_111\n      jump\t// in\n    tag_253:\n        /* \"#utility.yul\":9709:9712   */\n      dup5\n        /* \"#utility.yul\":9705:9744   */\n      add\n        /* \"#utility.yul\":9698:9744   */\n      swap2\n      pop\n        /* \"#utility.yul\":9465:9750   */\n      pop\n        /* \"#utility.yul\":9373:9750   */\n      swap3\n      swap2\n      pop\n      pop\n      jump\t// out\n        /* \"#utility.yul\":9756:9865   */\n    tag_132:\n        /* \"#utility.yul\":9837:9858   */\n      tag_255\n        /* \"#utility.yul\":9852:9857   */\n      dup2\n        /* \"#utility.yul\":9837:9858   */\n      tag_113\n      jump\t// in\n    tag_255:\n        /* \"#utility.yul\":9832:9835   */\n      dup3\n        /* \"#utility.yul\":9825:9859   */\n      mstore\n        /* \"#utility.yul\":9756:9865   */\n      pop\n      pop\n      jump\t// out\n        /* \"#utility.yul\":9871:9989   */\n    tag_133:\n        /* \"#utility.yul\":9958:9982   */\n      tag_257\n        /* \"#utility.yul\":9976:9981   */\n      dup2\n        /* \"#utility.yul\":9958:9982   */\n      tag_115\n      jump\t// in\n    tag_257:\n        /* \"#utility.yul\":9953:9956   */\n      dup3\n        /* \"#utility.yul\":9946:9983   */\n      mstore\n        /* \"#utility.yul\":9871:9989   */\n      pop\n      pop\n      jump\t// out\n        /* \"#utility.yul\":9995:10738   */\n    tag_28:\n        /* \"#utility.yul\":10214:10218   */\n      0x00\n        /* \"#utility.yul\":10252:10255   */\n      0xa0\n        /* \"#utility.yul\":10241:10250   */\n      dup3\n        /* \"#utility.yul\":10237:10256   */\n      add\n        /* \"#utility.yul\":10229:10256   */\n      swap1\n      pop\n        /* \"#utility.yul\":10266:10337   */\n      tag_259\n        /* \"#utility.yul\":10334:10335   */\n      0x00\n        /* \"#utility.yul\":10323:10332   */\n      dup4\n        /* \"#utility.yul\":10319:10336   */\n      add\n        /* \"#utility.yul\":10310:10316   */\n      dup9\n        /* \"#utility.yul\":10266:10337   */\n      tag_129\n      jump\t// in\n    tag_259:\n        /* \"#utility.yul\":10384:10393   */\n      dup2\n        /* \"#utility.yul\":10378:10382   */\n      dup2\n        /* \"#utility.yul\":10374:10394   */\n      sub\n        /* \"#utility.yul\":10369:10371   */\n      0x20\n        /* \"#utility.yul\":10358:10367   */\n      dup4\n        /* \"#utility.yul\":10354:10372   */\n      add\n        /* \"#utility.yul\":10347:10395   */\n      mstore\n        /* \"#utility.yul\":10412:10490   */\n      tag_260\n        /* \"#utility.yul\":10485:10489   */\n      dup2\n        /* \"#utility.yul\":10476:10482   */\n      dup8\n        /* \"#utility.yul\":10412:10490   */\n      tag_131\n      jump\t// in\n    tag_260:\n        /* \"#utility.yul\":10404:10490   */\n      swap1\n      pop\n        /* \"#utility.yul\":10500:10566   */\n      tag_261\n        /* \"#utility.yul\":10562:10564   */\n      0x40\n        /* \"#utility.yul\":10551:10560   */\n      dup4\n        /* \"#utility.yul\":10547:10565   */\n      add\n        /* \"#utility.yul\":10538:10544   */\n      dup7\n        /* \"#utility.yul\":10500:10566   */\n      tag_132\n      jump\t// in\n    tag_261:\n        /* \"#utility.yul\":10576:10648   */\n      tag_262\n        /* \"#utility.yul\":10644:10646   */\n      0x60\n        /* \"#utility.yul\":10633:10642   */\n      dup4\n        /* \"#utility.yul\":10629:10647   */\n      add\n        /* \"#utility.yul\":10620:10626   */\n      dup6\n        /* \"#utility.yul\":10576:10648   */\n      tag_133\n      jump\t// in\n    tag_262:\n        /* \"#utility.yul\":10658:10731   */\n      tag_263\n        /* \"#utility.yul\":10726:10729   */\n      0x80\n        /* \"#utility.yul\":10715:10724   */\n      dup4\n        /* \"#utility.yul\":10711:10730   */\n      add\n        /* \"#utility.yul\":10702:10708   */\n      dup5\n        /* \"#utility.yul\":10658:10731   */\n      tag_128\n      jump\t// in\n    tag_263:\n        /* \"#utility.yul\":9995:10738   */\n      swap7\n      swap6\n      pop\n      pop\n      pop\n      pop\n      pop\n      pop\n      jump\t// out\n        /* \"#utility.yul\":10744:10861   */\n    tag_134:\n        /* \"#utility.yul\":10853:10854   */\n      0x00\n        /* \"#utility.yul\":10850:10851   */\n      dup1\n        /* \"#utility.yul\":10843:10855   */\n      revert\n        /* \"#utility.yul\":10867:10984   */\n    tag_135:\n        /* \"#utility.yul\":10976:10977   */\n      0x00\n        /* \"#utility.yul\":10973:10974   */\n      dup1\n        /* \"#utility.yul\":10966:10978   */\n      revert\n        /* \"#utility.yul\":10990:11107   */\n    tag_136:\n        /* \"#utility.yul\":11099:11100   */\n      0x00\n        /* \"#utility.yul\":11096:11097   */\n      dup1\n        /* \"#utility.yul\":11089:11101   */\n      revert\n        /* \"#utility.yul\":11127:11680   */\n    tag_137:\n        /* \"#utility.yul\":11185:11193   */\n      0x00\n        /* \"#utility.yul\":11195:11201   */\n      dup1\n        /* \"#utility.yul\":11245:11248   */\n      dup4\n        /* \"#utility.yul\":11238:11242   */\n      0x1f\n        /* \"#utility.yul\":11230:11236   */\n      dup5\n        /* \"#utility.yul\":11226:11243   */\n      add\n        /* \"#utility.yul\":11222:11249   */\n      slt\n        /* \"#utility.yul\":11212:11334   */\n      tag_268\n      jumpi\n        /* \"#utility.yul\":11253:11332   */\n      tag_269\n      tag_134\n      jump\t// in\n    tag_269:\n        /* \"#utility.yul\":11212:11334   */\n    tag_268:\n        /* \"#utility.yul\":11366:11372   */\n      dup3\n        /* \"#utility.yul\":11353:11373   */\n      calldataload\n        /* \"#utility.yul\":11343:11373   */\n      swap1\n      pop\n        /* \"#utility.yul\":11396:11414   */\n      0xffffffffffffffff\n        /* \"#utility.yul\":11388:11394   */\n      dup2\n        /* \"#utility.yul\":11385:11415   */\n      gt\n        /* \"#utility.yul\":11382:11499   */\n      iszero\n      tag_270\n      jumpi\n        /* \"#utility.yul\":11418:11497   */\n      tag_271\n      tag_135\n      jump\t// in\n    tag_271:\n        /* \"#utility.yul\":11382:11499   */\n    tag_270:\n        /* \"#utility.yul\":11532:11536   */\n      0x20\n        /* \"#utility.yul\":11524:11530   */\n      dup4\n        /* \"#utility.yul\":11520:11537   */\n      add\n        /* \"#utility.yul\":11508:11537   */\n      swap2\n      pop\n        /* \"#utility.yul\":11586:11589   */\n      dup4\n        /* \"#utility.yul\":11578:11582   */\n      0x01\n        /* \"#utility.yul\":11570:11576   */\n      dup3\n        /* \"#utility.yul\":11566:11583   */\n      mul\n        /* \"#utility.yul\":11556:11564   */\n      dup4\n        /* \"#utility.yul\":11552:11584   */\n      add\n        /* \"#utility.yul\":11549:11590   */\n      gt\n        /* \"#utility.yul\":11546:11674   */\n      iszero\n      tag_272\n      jumpi\n        /* \"#utility.yul\":11593:11672   */\n      tag_273\n      tag_136\n      jump\t// in\n    tag_273:\n        /* \"#utility.yul\":11546:11674   */\n    tag_272:\n        /* \"#utility.yul\":11127:11680   */\n      swap3\n      pop\n      swap3\n      swap1\n      pop\n      jump\t// out\n        /* \"#utility.yul\":11686:11802   */\n    tag_138:\n        /* \"#utility.yul\":11756:11777   */\n      tag_275\n        /* \"#utility.yul\":11771:11776   */\n      dup2\n        /* \"#utility.yul\":11756:11777   */\n      tag_113\n      jump\t// in\n    tag_275:\n        /* \"#utility.yul\":11749:11754   */\n      dup2\n        /* \"#utility.yul\":11746:11778   */\n      eq\n        /* \"#utility.yul\":11736:11796   */\n      tag_276\n      jumpi\n        /* \"#utility.yul\":11792:11793   */\n      0x00\n        /* \"#utility.yul\":11789:11790   */\n      dup1\n        /* \"#utility.yul\":11782:11794   */\n      revert\n        /* \"#utility.yul\":11736:11796   */\n    tag_276:\n        /* \"#utility.yul\":11686:11802   */\n      pop\n      jump\t// out\n        /* \"#utility.yul\":11808:11941   */\n    tag_139:\n        /* \"#utility.yul\":11851:11856   */\n      0x00\n        /* \"#utility.yul\":11889:11895   */\n      dup2\n        /* \"#utility.yul\":11876:11896   */\n      calldataload\n        /* \"#utility.yul\":11867:11896   */\n      swap1\n      pop\n        /* \"#utility.yul\":11905:11935   */\n      tag_278\n        /* \"#utility.yul\":11929:11934   */\n      dup2\n        /* \"#utility.yul\":11905:11935   */\n      tag_138\n      jump\t// in\n    tag_278:\n        /* \"#utility.yul\":11808:11941   */\n      swap3\n      swap2\n      pop\n      pop\n      jump\t// out\n        /* \"#utility.yul\":11947:12069   */\n    tag_140:\n        /* \"#utility.yul\":12020:12044   */\n      tag_280\n        /* \"#utility.yul\":12038:12043   */\n      dup2\n        /* \"#utility.yul\":12020:12044   */\n      tag_115\n      jump\t// in\n    tag_280:\n        /* \"#utility.yul\":12013:12018   */\n      dup2\n        /* \"#utility.yul\":12010:12045   */\n      eq\n        /* \"#utility.yul\":12000:12063   */\n      tag_281\n      jumpi\n        /* \"#utility.yul\":12059:12060   */\n      0x00\n        /* \"#utility.yul\":12056:12057   */\n      dup1\n        /* \"#utility.yul\":12049:12061   */\n      revert\n        /* \"#utility.yul\":12000:12063   */\n    tag_281:\n        /* \"#utility.yul\":11947:12069   */\n      pop\n      jump\t// out\n        /* \"#utility.yul\":12075:12214   */\n    tag_141:\n        /* \"#utility.yul\":12121:12126   */\n      0x00\n        /* \"#utility.yul\":12159:12165   */\n      dup2\n        /* \"#utility.yul\":12146:12166   */\n      calldataload\n        /* \"#utility.yul\":12137:12166   */\n      swap1\n      pop\n        /* \"#utility.yul\":12175:12208   */\n      tag_283\n        /* \"#utility.yul\":12202:12207   */\n      dup2\n        /* \"#utility.yul\":12175:12208   */\n      tag_140\n      jump\t// in\n    tag_283:\n        /* \"#utility.yul\":12075:12214   */\n      swap3\n      swap2\n      pop\n      pop\n      jump\t// out\n        /* \"#utility.yul\":12220:13179   */\n    tag_31:\n        /* \"#utility.yul\":12315:12321   */\n      0x00\n        /* \"#utility.yul\":12323:12329   */\n      dup1\n        /* \"#utility.yul\":12331:12337   */\n      0x00\n        /* \"#utility.yul\":12339:12345   */\n      dup1\n        /* \"#utility.yul\":12347:12353   */\n      0x00\n        /* \"#utility.yul\":12396:12399   */\n      0x80\n        /* \"#utility.yul\":12384:12393   */\n      dup7\n        /* \"#utility.yul\":12375:12382   */\n      dup9\n        /* \"#utility.yul\":12371:12394   */\n      sub\n        /* \"#utility.yul\":12367:12400   */\n      slt\n        /* \"#utility.yul\":12364:12484   */\n      iszero\n      tag_285\n      jumpi\n        /* \"#utility.yul\":12403:12482   */\n      tag_286\n      tag_100\n      jump\t// in\n    tag_286:\n        /* \"#utility.yul\":12364:12484   */\n    tag_285:\n        /* \"#utility.yul\":12523:12524   */\n      0x00\n        /* \"#utility.yul\":12548:12601   */\n      tag_287\n        /* \"#utility.yul\":12593:12600   */\n      dup9\n        /* \"#utility.yul\":12584:12590   */\n      dup3\n        /* \"#utility.yul\":12573:12582   */\n      dup10\n        /* \"#utility.yul\":12569:12591   */\n      add\n        /* \"#utility.yul\":12548:12601   */\n      tag_120\n      jump\t// in\n    tag_287:\n        /* \"#utility.yul\":12538:12601   */\n      swap6\n      pop\n        /* \"#utility.yul\":12494:12611   */\n      pop\n        /* \"#utility.yul\":12678:12680   */\n      0x20\n        /* \"#utility.yul\":12667:12676   */\n      dup7\n        /* \"#utility.yul\":12663:12681   */\n      add\n        /* \"#utility.yul\":12650:12682   */\n      calldataload\n        /* \"#utility.yul\":12709:12727   */\n      0xffffffffffffffff\n        /* \"#utility.yul\":12701:12707   */\n      dup2\n        /* \"#utility.yul\":12698:12728   */\n      gt\n        /* \"#utility.yul\":12695:12812   */\n      iszero\n      tag_288\n      jumpi\n        /* \"#utility.yul\":12731:12810   */\n      tag_289\n      tag_101\n      jump\t// in\n    tag_289:\n        /* \"#utility.yul\":12695:12812   */\n    tag_288:\n        /* \"#utility.yul\":12844:12909   */\n      tag_290\n        /* \"#utility.yul\":12901:12908   */\n      dup9\n        /* \"#utility.yul\":12892:12898   */\n      dup3\n        /* \"#utility.yul\":12881:12890   */\n      dup10\n        /* \"#utility.yul\":12877:12899   */\n      add\n        /* \"#utility.yul\":12844:12909   */\n      tag_137\n      jump\t// in\n    tag_290:\n        /* \"#utility.yul\":12826:12909   */\n      swap5\n      pop\n      swap5\n      pop\n        /* \"#utility.yul\":12621:12919   */\n      pop\n        /* \"#utility.yul\":12958:12960   */\n      0x40\n        /* \"#utility.yul\":12984:13034   */\n      tag_291\n        /* \"#utility.yul\":13026:13033   */\n      dup9\n        /* \"#utility.yul\":13017:13023   */\n      dup3\n        /* \"#utility.yul\":13006:13015   */\n      dup10\n        /* \"#utility.yul\":13002:13024   */\n      add\n        /* \"#utility.yul\":12984:13034   */\n      tag_139\n      jump\t// in\n    tag_291:\n        /* \"#utility.yul\":12974:13034   */\n      swap3\n      pop\n        /* \"#utility.yul\":12929:13044   */\n      pop\n        /* \"#utility.yul\":13083:13085   */\n      0x60\n        /* \"#utility.yul\":13109:13162   */\n      tag_292\n        /* \"#utility.yul\":13154:13161   */\n      dup9\n        /* \"#utility.yul\":13145:13151   */\n      dup3\n        /* \"#utility.yul\":13134:13143   */\n      dup10\n        /* \"#utility.yul\":13130:13152   */\n      add\n        /* \"#utility.yul\":13109:13162   */\n      tag_141\n      jump\t// in\n    tag_292:\n        /* \"#utility.yul\":13099:13162   */\n      swap2\n      pop\n        /* \"#utility.yul\":13054:13172   */\n      pop\n        /* \"#utility.yul\":12220:13179   */\n      swap3\n      swap6\n      pop\n      swap3\n      swap6\n      swap1\n      swap4\n      pop\n      jump\t// out\n        /* \"#utility.yul\":13185:13358   */\n    tag_142:\n        /* \"#utility.yul\":13325:13350   */\n      0x4c6f6720696e646578206f7574206f6620626f756e6473000000000000000000\n        /* \"#utility.yul\":13321:13322   */\n      0x00\n        /* \"#utility.yul\":13313:13319   */\n      dup3\n        /* \"#utility.yul\":13309:13323   */\n      add\n        /* \"#utility.yul\":13302:13351   */\n      mstore\n        /* \"#utility.yul\":13185:13358   */\n      pop\n      jump\t// out\n        /* \"#utility.yul\":13364:13730   */\n    tag_143:\n        /* \"#utility.yul\":13506:13509   */\n      0x00\n        /* \"#utility.yul\":13527:13594   */\n      tag_295\n        /* \"#utility.yul\":13591:13593   */\n      0x17\n        /* \"#utility.yul\":13586:13589   */\n      dup4\n        /* \"#utility.yul\":13527:13594   */\n      tag_130\n      jump\t// in\n    tag_295:\n        /* \"#utility.yul\":13520:13594   */\n      swap2\n      pop\n        /* \"#utility.yul\":13603:13696   */\n      tag_296\n        /* \"#utility.yul\":13692:13695   */\n      dup3\n        /* \"#utility.yul\":13603:13696   */\n      tag_142\n      jump\t// in\n    tag_296:\n        /* \"#utility.yul\":13721:13723   */\n      0x20\n        /* \"#utility.yul\":13716:13719   */\n      dup3\n        /* \"#utility.yul\":13712:13724   */\n      add\n        /* \"#utility.yul\":13705:13724   */\n      swap1\n      pop\n        /* \"#utility.yul\":13364:13730   */\n      swap2\n      swap1\n      pop\n      jump\t// out\n        /* \"#utility.yul\":13736:14155   */\n    tag_38:\n        /* \"#utility.yul\":13902:13906   */\n      0x00\n        /* \"#utility.yul\":13940:13942   */\n      0x20\n        /* \"#utility.yul\":13929:13938   */\n      dup3\n        /* \"#utility.yul\":13925:13943   */\n      add\n        /* \"#utility.yul\":13917:13943   */\n      swap1\n      pop\n        /* \"#utility.yul\":13989:13998   */\n      dup2\n        /* \"#utility.yul\":13983:13987   */\n      dup2\n        /* \"#utility.yul\":13979:13999   */\n      sub\n        /* \"#utility.yul\":13975:13976   */\n      0x00\n        /* \"#utility.yul\":13964:13973   */\n      dup4\n        /* \"#utility.yul\":13960:13977   */\n      add\n        /* \"#utility.yul\":13953:14000   */\n      mstore\n        /* \"#utility.yul\":14017:14148   */\n      tag_298\n        /* \"#utility.yul\":14143:14147   */\n      dup2\n        /* \"#utility.yul\":14017:14148   */\n      tag_143\n      jump\t// in\n    tag_298:\n        /* \"#utility.yul\":14009:14148   */\n      swap1\n      pop\n        /* \"#utility.yul\":13736:14155   */\n      swap2\n      swap1\n      pop\n      jump\t// out\n        /* \"#utility.yul\":14161:14341   */\n    tag_41:\n        /* \"#utility.yul\":14209:14286   */\n      0x4e487b7100000000000000000000000000000000000000000000000000000000\n        /* \"#utility.yul\":14206:14207   */\n      0x00\n        /* \"#utility.yul\":14199:14287   */\n      mstore\n        /* \"#utility.yul\":14306:14310   */\n      0x32\n        /* \"#utility.yul\":14303:14304   */\n      0x04\n        /* \"#utility.yul\":14296:14311   */\n      mstore\n        /* \"#utility.yul\":14330:14334   */\n      0x24\n        /* \"#utility.yul\":14327:14328   */\n      0x00\n        /* \"#utility.yul\":14320:14335   */\n      revert\n        /* \"#utility.yul\":14347:14527   */\n    tag_144:\n        /* \"#utility.yul\":14395:14472   */\n      0x4e487b7100000000000000000000000000000000000000000000000000000000\n        /* \"#utility.yul\":14392:14393   */\n      0x00\n        /* \"#utility.yul\":14385:14473   */\n      mstore\n        /* \"#utility.yul\":14492:14496   */\n      0x22\n        /* \"#utility.yul\":14489:14490   */\n      0x04\n        /* \"#utility.yul\":14482:14497   */\n      mstore\n        /* \"#utility.yul\":14516:14520   */\n      0x24\n        /* \"#utility.yul\":14513:14514   */\n      0x00\n        /* \"#utility.yul\":14506:14521   */\n      revert\n        /* \"#utility.yul\":14533:14853   */\n    tag_44:\n        /* \"#utility.yul\":14577:14583   */\n      0x00\n        /* \"#utility.yul\":14614:14615   */\n      0x02\n        /* \"#utility.yul\":14608:14612   */\n      dup3\n        /* \"#utility.yul\":14604:14616   */\n      div\n        /* \"#utility.yul\":14594:14616   */\n      swap1\n      pop\n        /* \"#utility.yul\":14661:14662   */\n      0x01\n        /* \"#utility.yul\":14655:14659   */\n      dup3\n        /* \"#utility.yul\":14651:14663   */\n      and\n        /* \"#utility.yul\":14682:14700   */\n      dup1\n        /* \"#utility.yul\":14672:14753   */\n      tag_302\n      jumpi\n        /* \"#utility.yul\":14738:14742   */\n      0x7f\n        /* \"#utility.yul\":14730:14736   */\n      dup3\n        /* \"#utility.yul\":14726:14743   */\n      and\n        /* \"#utility.yul\":14716:14743   */\n      swap2\n      pop\n        /* \"#utility.yul\":14672:14753   */\n    tag_302:\n        /* \"#utility.yul\":14800:14802   */\n      0x20\n        /* \"#utility.yul\":14792:14798   */\n      dup3\n        /* \"#utility.yul\":14789:14803   */\n      lt\n        /* \"#utility.yul\":14769:14787   */\n      dup2\n        /* \"#utility.yul\":14766:14804   */\n      sub\n        /* \"#utility.yul\":14763:14847   */\n      tag_303\n      jumpi\n        /* \"#utility.yul\":14819:14837   */\n      tag_304\n      tag_144\n      jump\t// in\n    tag_304:\n        /* \"#utility.yul\":14763:14847   */\n    tag_303:\n        /* \"#utility.yul\":14584:14853   */\n      pop\n        /* \"#utility.yul\":14533:14853   */\n      swap2\n      swap1\n      pop\n      jump\t// out\n        /* \"#utility.yul\":14859:15039   */\n    tag_145:\n        /* \"#utility.yul\":14907:14984   */\n      0x4e487b7100000000000000000000000000000000000000000000000000000000\n        /* \"#utility.yul\":14904:14905   */\n      0x00\n        /* \"#utility.yul\":14897:14985   */\n      mstore\n        /* \"#utility.yul\":15004:15008   */\n      0x11\n        /* \"#utility.yul\":15001:15002   */\n      0x04\n        /* \"#utility.yul\":14994:15009   */\n      mstore\n        /* \"#utility.yul\":15028:15032   */\n      0x24\n        /* \"#utility.yul\":15025:15026   */\n      0x00\n        /* \"#utility.yul\":15018:15033   */\n      revert\n        /* \"#utility.yul\":15045:15278   */\n    tag_58:\n        /* \"#utility.yul\":15084:15087   */\n      0x00\n        /* \"#utility.yul\":15107:15131   */\n      tag_307\n        /* \"#utility.yul\":15125:15130   */\n      dup3\n        /* \"#utility.yul\":15107:15131   */\n      tag_102\n      jump\t// in\n    tag_307:\n        /* \"#utility.yul\":15098:15131   */\n      swap2\n      pop\n        /* \"#utility.yul\":15153:15219   */\n      0xffffffffffffffffffffffffffffffffffffffffffffffffffffffffffffffff\n        /* \"#utility.yul\":15146:15151   */\n      dup3\n        /* \"#utility.yul\":15143:15220   */\n      sub\n        /* \"#utility.yul\":15140:15243   */\n      tag_308\n      jumpi\n        /* \"#utility.yul\":15223:15241   */\n      tag_309\n      tag_145\n      jump\t// in\n    tag_309:\n        /* \"#utility.yul\":15140:15243   */\n    tag_308:\n        /* \"#utility.yul\":15270:15271   */\n      0x01\n        /* \"#utility.yul\":15263:15268   */\n      dup3\n        /* \"#utility.yul\":15259:15272   */\n      add\n        /* \"#utility.yul\":15252:15272   */\n      swap1\n      pop\n        /* \"#utility.yul\":15045:15278   */\n      swap2\n      swap1\n      pop\n      jump\t// out\n        /* \"#utility.yul\":15284:15464   */\n    tag_62:\n        /* \"#utility.yul\":15332:15409   */\n      0x4e487b7100000000000000000000000000000000000000000000000000000000\n        /* \"#utility.yul\":15329:15330   */\n      0x00\n        /* \"#utility.yul\":15322:15410   */\n      mstore\n        /* \"#utility.yul\":15429:15433   */\n      0x41\n        /* \"#utility.yul\":15426:15427   */\n      0x04\n        /* \"#utility.yul\":15419:15434   */\n      mstore\n        /* \"#utility.yul\":15453:15457   */\n      0x24\n        /* \"#utility.yul\":15450:15451   */\n      0x00\n        /* \"#utility.yul\":15443:15458   */\n      revert\n        /* \"#utility.yul\":15470:15611   */\n    tag_146:\n        /* \"#utility.yul\":15519:15523   */\n      0x00\n        /* \"#utility.yul\":15542:15545   */\n      dup2\n        /* \"#utility.yul\":15534:15545   */\n      swap1\n      pop\n        /* \"#utility.yul\":15565:15568   */\n      dup2\n        /* \"#utility.yul\":15562:15563   */\n      0x00\n        /* \"#utility.yul\":15555:15569   */\n      mstore\n        /* \"#utility.yul\":15599:15603   */\n      0x20\n        /* \"#utility.yul\":15596:15597   */\n      0x00\n        /* \"#utility.yul\":15586:15604   */\n      keccak256\n        /* \"#utility.yul\":15578:15604   */\n      swap1\n      pop\n        /* \"#utility.yul\":15470:15611   */\n      swap2\n      swap1\n      pop\n      jump\t// out\n        /* \"#utility.yul\":15617:15710   */\n    tag_147:\n        /* \"#utility.yul\":15654:15660   */\n      0x00\n        /* \"#utility.yul\":15701:15703   */\n      0x20\n        /* \"#utility.yul\":15696:15698   */\n      0x1f\n        /* \"#utility.yul\":15689:15694   */\n      dup4\n        /* \"#utility.yul\":15685:15699   */\n      add\n        /* \"#utility.yul\":15681:15704   */\n      div\n        /* \"#utility.yul\":15671:15704   */\n      swap1\n      pop\n        /* \"#utility.yul\":15617:15710   */\n      swap2\n      swap1\n      pop\n      jump\t// out\n        /* \"#utility.yul\":15716:15823   */\n    tag_148:\n        /* \"#utility.yul\":15760:15768   */\n      0x00\n        /* \"#utility.yul\":15810:15815   */\n      dup3\n        /* \"#utility.yul\":15804:15808   */\n      dup3\n        /* \"#utility.yul\":15800:15816   */\n      shl\n        /* \"#utility.yul\":15779:15816   */\n      swap1\n      pop\n        /* \"#utility.yul\":15716:15823   */\n      swap3\n      swap2\n      pop\n      pop\n      jump\t// out\n        /* \"#utility.yul\":15829:16222   */\n    tag_149:\n        /* \"#utility.yul\":15898:15904   */\n      0x00\n        /* \"#utility.yul\":15948:15949   */\n      0x08\n        /* \"#utility.yul\":15936:15946   */\n      dup4\n        /* \"#utility.yul\":15932:15950   */\n      mul\n        /* \"#utility.yul\":15971:16068   */\n      tag_315\n        /* \"#utility.yul\":16001:16067   */\n      0xffffffffffffffffffffffffffffffffffffffffffffffffffffffffffffffff\n        /* \"#utility.yul\":15990:15999   */\n      dup3\n        /* \"#utility.yul\":15971:16068   */\n      tag_148\n      jump\t// in\n    tag_315:\n        /* \"#utility.yul\":16089:16128   */\n      tag_316\n        /* \"#utility.yul\":16119:16127   */\n      dup7\n        /* \"#utility.yul\":16108:16117   */\n      dup4\n        /* \"#utility.yul\":16089:16128   */\n      tag_148\n      jump\t// in\n    tag_316:\n        /* \"#utility.yul\":16077:16128   */\n      swap6\n      pop\n        /* \"#utility.yul\":16161:16165   */\n      dup1\n        /* \"#utility.yul\":16157:16166   */\n      not\n        /* \"#utility.yul\":16150:16155   */\n      dup5\n        /* \"#utility.yul\":16146:16167   */\n      and\n        /* \"#utility.yul\":16137:16167   */\n      swap4\n      pop\n        /* \"#utility.yul\":16210:16214   */\n      dup1\n        /* \"#utility.yul\":16200:16208   */\n      dup7\n        /* \"#utility.yul\":16196:16215   */\n      and\n        /* \"#utility.yul\":16189:16194   */\n      dup5\n        /* \"#utility.yul\":16186:16216   */\n      or\n        /* \"#utility.yul\":16176:16216   */\n      swap3\n      pop\n        /* \"#utility.yul\":15905:16222   */\n      pop\n      pop\n        /* \"#utility.yul\":15829:16222   */\n      swap4\n      swap3\n      pop\n      pop\n      pop\n      jump\t// out\n        /* \"#utility.yul\":16228:16288   */\n    tag_150:\n        /* \"#utility.yul\":16256:16259   */\n      0x00\n        /* \"#utility.yul\":16277:16282   */\n      dup2\n        /* \"#utility.yul\":16270:16282   */\n      swap1\n      pop\n        /* \"#utility.yul\":16228:16288   */\n      swap2\n      swap1\n      pop\n      jump\t// out\n        /* \"#utility.yul\":16294:16436   */\n    tag_151:\n        /* \"#utility.yul\":16344:16353   */\n      0x00\n        /* \"#utility.yul\":16377:16430   */\n      tag_319\n        /* \"#utility.yul\":16395:16429   */\n      tag_320\n        /* \"#utility.yul\":16404:16428   */\n      tag_321\n        /* \"#utility.yul\":16422:16427   */\n      dup5\n        /* \"#utility.yul\":16404:16428   */\n      tag_102\n      jump\t// in\n    tag_321:\n        /* \"#utility.yul\":16395:16429   */\n      tag_150\n      jump\t// in\n    tag_320:\n        /* \"#utility.yul\":16377:16430   */\n      tag_102\n      jump\t// in\n    tag_319:\n        /* \"#utility.yul\":16364:16430   */\n      swap1\n      pop\n        /* \"#utility.yul\":16294:16436   */\n      swap2\n      swap1\n      pop\n      jump\t// out\n        /* \"#utility.yul\":16442:16517   */\n    tag_152:\n        /* \"#utility.yul\":16485:16488   */\n      0x00\n        /* \"#utility.yul\":16506:16511   */\n      dup2\n        /* \"#utility.yul\":16499:16511   */\n      swap1\n      pop\n        /* \"#utility.yul\":16442:16517   */\n      swap2\n      swap1\n      pop\n      jump\t// out\n        /* \"#utility.yul\":16523:16792   */\n    tag_153:\n        /* \"#utility.yul\":16633:16672   */\n      tag_324\n        /* \"#utility.yul\":16664:16671   */\n      dup4\n        /* \"#utility.yul\":16633:16672   */\n      tag_151\n      jump\t// in\n    tag_324:\n        /* \"#utility.yul\":16694:16785   */\n      tag_325\n        /* \"#utility.yul\":16743:16784   */\n      tag_326\n        /* \"#utility.yul\":16767:16783   */\n      dup3\n        /* \"#utility.yul\":16743:16784   */\n      tag_152\n      jump\t// in\n    tag_326:\n        /* \"#utility.yul\":16735:16741   */\n      dup5\n        /* \"#utility.yul\":16728:16732   */\n      dup5\n        /* \"#utility.yul\":16722:16733   */\n      sload\n        /* \"#utility.yul\":16694:16785   */\n      tag_149\n      jump\t// in\n    tag_325:\n        /* \"#utility.yul\":16688:16692   */\n      dup3\n        /* \"#utility.yul\":16681:16786   */\n      sstore\n        /* \"#utility.yul\":16599:16792   */\n      pop\n        /* \"#utility.yul\":16523:16792   */\n      pop\n      pop\n      pop\n      jump\t// out\n        /* \"#utility.yul\":16798:16871   */\n    tag_154:\n        /* \"#utility.yul\":16843:16846   */\n      0x00\n        /* \"#utility.yul\":16798:16871   */\n      swap1\n      jump\t// out\n        /* \"#utility.yul\":16877:17066   */\n    tag_155:\n        /* \"#utility.yul\":16954:16986   */\n      tag_329\n      tag_154\n      jump\t// in\n    tag_329:\n        /* \"#utility.yul\":16995:17060   */\n      tag_330\n        /* \"#utility.yul\":17053:17059   */\n      dup2\n        /* \"#utility.yul\":17045:17051   */\n      dup5\n        /* \"#utility.yul\":17039:17043   */\n      dup5\n        /* \"#utility.yul\":16995:17060   */\n      tag_153\n      jump\t// in\n    tag_330:\n        /* \"#utility.yul\":16930:17066   */\n      pop\n        /* \"#utility.yul\":16877:17066   */\n      pop\n      pop\n      jump\t// out\n        /* \"#utility.yul\":17072:17258   */\n    tag_156:\n        /* \"#utility.yul\":17132:17252   */\n    tag_332:\n        /* \"#utility.yul\":17149:17152   */\n      dup2\n        /* \"#utility.yul\":17142:17147   */\n      dup2\n        /* \"#utility.yul\":17139:17153   */\n      lt\n        /* \"#utility.yul\":17132:17252   */\n      iszero\n      tag_334\n      jumpi\n        /* \"#utility.yul\":17203:17242   */\n      tag_335\n        /* \"#utility.yul\":17240:17241   */\n      0x00\n        /* \"#utility.yul\":17233:17238   */\n      dup3\n        /* \"#utility.yul\":17203:17242   */\n      tag_155\n      jump\t// in\n    tag_335:\n        /* \"#utility.yul\":17176:17177   */\n      0x01\n        /* \"#utility.yul\":17169:17174   */\n      dup2\n        /* \"#utility.yul\":17165:17178   */\n      add\n        /* \"#utility.yul\":17156:17178   */\n      swap1\n      pop\n        /* \"#utility.yul\":17132:17252   */\n      jump(tag_332)\n    tag_334:\n        /* \"#utility.yul\":17072:17258   */\n      pop\n      pop\n      jump\t// out\n        /* \"#utility.yul\":17264:17807   */\n    tag_157:\n        /* \"#utility.yul\":17365:17367   */\n      0x1f\n        /* \"#utility.yul\":17360:17363   */\n      dup3\n        /* \"#utility.yul\":17357:17368   */\n      gt\n        /* \"#utility.yul\":17354:17800   */\n      iszero\n      tag_337\n      jumpi\n        /* \"#utility.yul\":17399:17437   */\n      tag_338\n        /* \"#utility.yul\":17431:17436   */\n      dup2\n        /* \"#utility.yul\":17399:17437   */\n      tag_146\n      jump\t// in\n    tag_338:\n        /* \"#utility.yul\":17483:17512   */\n      tag_339\n        /* \"#utility.yul\":17501:17511   */\n      dup5\n        /* \"#utility.yul\":17483:17512   */\n      tag_147\n      jump\t// in\n    tag_339:\n        /* \"#utility.yul\":17473:17481   */\n      dup2\n        /* \"#utility.yul\":17469:17513   */\n      add\n        /* \"#utility.yul\":17666:17668   */\n      0x20\n        /* \"#utility.yul\":17654:17664   */\n      dup6\n        /* \"#utility.yul\":17651:17669   */\n      lt\n        /* \"#utility.yul\":17648:17697   */\n      iszero\n      tag_340\n      jumpi\n        /* \"#utility.yul\":17687:17695   */\n      dup2\n        /* \"#utility.yul\":17672:17695   */\n      swap1\n      pop\n        /* \"#utility.yul\":17648:17697   */\n    tag_340:\n        /* \"#utility.yul\":17710:17790   */\n      tag_341\n        /* \"#utility.yul\":17766:17788   */\n      tag_342\n        /* \"#utility.yul\":17784:17787   */\n      dup6\n        /* \"#utility.yul\":17766:17788   */\n      tag_147\n      jump\t// in\n    tag_342:\n        /* \"#utility.yul\":17756:17764   */\n      dup4\n        /* \"#utility.yul\":17752:17789   */\n      add\n        /* \"#utility.yul\":17739:17750   */\n      dup3\n        /* \"#utility.yul\":17710:17790   */\n      tag_156\n      jump\t// in\n    tag_341:\n        /* \"#utility.yul\":17369:17800   */\n      pop\n      pop\n        /* \"#utility.yul\":17354:17800   */\n    tag_337:\n        /* \"#utility.yul\":17264:17807   */\n      pop\n      pop\n      pop\n      jump\t// out\n        /* \"#utility.yul\":17813:17930   */\n    tag_158:\n        /* \"#utility.yul\":17867:17875   */\n      0x00\n        /* \"#utility.yul\":17917:17922   */\n      dup3\n        /* \"#utility.yul\":17911:17915   */\n      dup3\n        /* \"#utility.yul\":17907:17923   */\n      shr\n        /* \"#utility.yul\":17886:17923   */\n      swap1\n      pop\n        /* \"#utility.yul\":17813:17930   */\n      swap3\n      swap2\n      pop\n      pop\n      jump\t// out\n        /* \"#utility.yul\":17936:18105   */\n    tag_159:\n        /* \"#utility.yul\":17980:17986   */\n      0x00\n        /* \"#utility.yul\":18013:18064   */\n      tag_345\n        /* \"#utility.yul\":18061:18062   */\n      0x00\n        /* \"#utility.yul\":18057:18063   */\n      not\n        /* \"#utility.yul\":18049:18054   */\n      dup5\n        /* \"#utility.yul\":18046:18047   */\n      0x08\n        /* \"#utility.yul\":18042:18055   */\n      mul\n        /* \"#utility.yul\":18013:18064   */\n      tag_158\n      jump\t// in\n    tag_345:\n        /* \"#utility.yul\":18009:18065   */\n      not\n        /* \"#utility.yul\":18094:18098   */\n      dup1\n        /* \"#utility.yul\":18088:18092   */\n      dup4\n        /* \"#utility.yul\":18084:18099   */\n      and\n        /* \"#utility.yul\":18074:18099   */\n      swap2\n      pop\n        /* \"#utility.yul\":17987:18105   */\n      pop\n        /* \"#utility.yul\":17936:18105   */\n      swap3\n      swap2\n      pop\n      pop\n      jump\t// out\n        /* \"#utility.yul\":18110:18405   */\n    tag_160:\n        /* \"#utility.yul\":18186:18190   */\n      0x00\n        /* \"#utility.yul\":18332:18361   */\n      tag_347\n        /* \"#utility.yul\":18357:18360   */\n      dup4\n        /* \"#utility.yul\":18351:18355   */\n      dup4\n        /* \"#utility.yul\":18332:18361   */\n      tag_159\n      jump\t// in\n    tag_347:\n        /* \"#utility.yul\":18324:18361   */\n      swap2\n      pop\n        /* \"#utility.yul\":18394:18397   */\n      dup3\n        /* \"#utility.yul\":18391:18392   */\n      0x02\n        /* \"#utility.yul\":18387:18398   */\n      mul\n        /* \"#utility.yul\":18381:18385   */\n      dup3\n        /* \"#utility.yul\":18378:18399   */\n      or\n        /* \"#utility.yul\":18370:18399   */\n      swap1\n      pop\n        /* \"#utility.yul\":18110:18405   */\n      swap3\n      swap2\n      pop\n      pop\n      jump\t// out\n        /* \"#utility.yul\":18410:19805   */\n    tag_96:\n        /* \"#utility.yul\":18527:18564   */\n      tag_349\n        /* \"#utility.yul\":18560:18563   */\n      dup3\n        /* \"#utility.yul\":18527:18564   */\n      tag_108\n      jump\t// in\n    tag_349:\n        /* \"#utility.yul\":18629:18647   */\n      0xffffffffffffffff\n        /* \"#utility.yul\":18621:18627   */\n      dup2\n        /* \"#utility.yul\":18618:18648   */\n      gt\n        /* \"#utility.yul\":18615:18671   */\n      iszero\n      tag_350\n      jumpi\n        /* \"#utility.yul\":18651:18669   */\n      tag_351\n      tag_62\n      jump\t// in\n    tag_351:\n        /* \"#utility.yul\":18615:18671   */\n    tag_350:\n        /* \"#utility.yul\":18695:18733   */\n      tag_352\n        /* \"#utility.yul\":18727:18731   */\n      dup3\n        /* \"#utility.yul\":18721:18732   */\n      sload\n        /* \"#utility.yul\":18695:18733   */\n      tag_44\n      jump\t// in\n    tag_352:\n        /* \"#utility.yul\":18780:18847   */\n      tag_353\n        /* \"#utility.yul\":18840:18846   */\n      dup3\n        /* \"#utility.yul\":18832:18838   */\n      dup3\n        /* \"#utility.yul\":18826:18830   */\n      dup6\n        /* \"#utility.yul\":18780:18847   */\n      tag_157\n      jump\t// in\n    tag_353:\n        /* \"#utility.yul\":18874:18875   */\n      0x00\n        /* \"#utility.yul\":18898:18902   */\n      0x20\n        /* \"#utility.yul\":18885:18902   */\n      swap1\n      pop\n        /* \"#utility.yul\":18930:18932   */\n      0x1f\n        /* \"#utility.yul\":18922:18928   */\n      dup4\n        /* \"#utility.yul\":18919:18933   */\n      gt\n        /* \"#utility.yul\":18947:18948   */\n      0x01\n        /* \"#utility.yul\":18942:19560   */\n      dup2\n      eq\n      tag_355\n      jumpi\n        /* \"#utility.yul\":19604:19605   */\n      0x00\n        /* \"#utility.yul\":19621:19627   */\n      dup5\n        /* \"#utility.yul\":19618:19695   */\n      iszero\n      tag_356\n      jumpi\n        /* \"#utility.yul\":19670:19679   */\n      dup3\n        /* \"#utility.yul\":19665:19668   */\n      dup8\n        /* \"#utility.yul\":19661:19680   */\n      add\n        /* \"#utility.yul\":19655:19681   */\n      mload\n        /* \"#utility.yul\":19646:19681   */\n      swap1\n      pop\n        /* \"#utility.yul\":19618:19695   */\n    tag_356:\n        /* \"#utility.yul\":19721:19788   */\n      tag_357\n        /* \"#utility.yul\":19781:19787   */\n      dup6\n        /* \"#utility.yul\":19774:19779   */\n      dup3\n        /* \"#utility.yul\":19721:19788   */\n      tag_160\n      jump\t// in\n    tag_357:\n        /* \"#utility.yul\":19715:19719   */\n      dup7\n        /* \"#utility.yul\":19708:19789   */\n      sstore\n        /* \"#utility.yul\":19577:19799   */\n      pop\n        /* \"#utility.yul\":18912:19799   */\n      jump(tag_354)\n        /* \"#utility.yul\":18942:19560   */\n    tag_355:\n        /* \"#utility.yul\":18994:18998   */\n      0x1f\n        /* \"#utility.yul\":18990:18999   */\n      not\n        /* \"#utility.yul\":18982:18988   */\n      dup5\n        /* \"#utility.yul\":18978:19000   */\n      and\n        /* \"#utility.yul\":19028:19065   */\n      tag_358\n        /* \"#utility.yul\":19060:19064   */\n      dup7\n        /* \"#utility.yul\":19028:19065   */\n      tag_146\n      jump\t// in\n    tag_358:\n        /* \"#utility.yul\":19087:19088   */\n      0x00\n        /* \"#utility.yul\":19101:19309   */\n    tag_359:\n        /* \"#utility.yul\":19115:19122   */\n      dup3\n        /* \"#utility.yul\":19112:19113   */\n      dup2\n        /* \"#utility.yul\":19109:19123   */\n      lt\n        /* \"#utility.yul\":19101:19309   */\n      iszero\n      tag_361\n      jumpi\n        /* \"#utility.yul\":19194:19203   */\n      dup5\n        /* \"#utility.yul\":19189:19192   */\n      dup10\n        /* \"#utility.yul\":19185:19204   */\n      add\n        /* \"#utility.yul\":19179:19205   */\n      mload\n        /* \"#utility.yul\":19171:19177   */\n      dup3\n        /* \"#utility.yul\":19164:19206   */\n      sstore\n        /* \"#utility.yul\":19245:19246   */\n      0x01\n        /* \"#utility.yul\":19237:19243   */\n      dup3\n        /* \"#utility.yul\":19233:19247   */\n      add\n        /* \"#utility.yul\":19223:19247   */\n      swap2\n      pop\n        /* \"#utility.yul\":19292:19294   */\n      0x20\n        /* \"#utility.yul\":19281:19290   */\n      dup6\n        /* \"#utility.yul\":19277:19295   */\n      add\n        /* \"#utility.yul\":19264:19295   */\n      swap5\n      pop\n        /* \"#utility.yul\":19138:19142   */\n      0x20\n        /* \"#utility.yul\":19135:19136   */\n      dup2\n        /* \"#utility.yul\":19131:19143   */\n      add\n        /* \"#utility.yul\":19126:19143   */\n      swap1\n      pop\n        /* \"#utility.yul\":19101:19309   */\n      jump(tag_359)\n    tag_361:\n        /* \"#utility.yul\":19337:19343   */\n      dup7\n        /* \"#utility.yul\":19328:19335   */\n      dup4\n        /* \"#utility.yul\":19325:19344   */\n      lt\n        /* \"#utility.yul\":19322:19501   */\n      iszero\n      tag_362\n      jumpi\n        /* \"#utility.yul\":19395:19404   */\n      dup5\n        /* \"#utility.yul\":19390:19393   */\n      dup10\n        /* \"#utility.yul\":19386:19405   */\n      add\n        /* \"#utility.yul\":19380:19406   */\n      mload\n        /* \"#utility.yul\":19438:19486   */\n      tag_363\n        /* \"#utility.yul\":19480:19484   */\n      0x1f\n        /* \"#utility.yul\":19472:19478   */\n      dup10\n        /* \"#utility.yul\":19468:19485   */\n      and\n        /* \"#utility.yul\":19457:19466   */\n      dup3\n        /* \"#utility.yul\":19438:19486   */\n      tag_159\n      jump\t// in\n    tag_363:\n        /* \"#utility.yul\":19430:19436   */\n      dup4\n        /* \"#utility.yul\":19423:19487   */\n      sstore\n        /* \"#utility.yul\":19345:19501   */\n      pop\n        /* \"#utility.yul\":19322:19501   */\n    tag_362:\n        /* \"#utility.yul\":19547:19548   */\n      0x01\n        /* \"#utility.yul\":19543:19544   */\n      0x02\n        /* \"#utility.yul\":19535:19541   */\n      dup9\n        /* \"#utility.yul\":19531:19545   */\n      mul\n        /* \"#utility.yul\":19527:19549   */\n      add\n        /* \"#utility.yul\":19521:19525   */\n      dup9\n        /* \"#utility.yul\":19514:19550   */\n      sstore\n        /* \"#utility.yul\":18949:19560   */\n      pop\n      pop\n      pop\n        /* \"#utility.yul\":18912:19799   */\n    tag_354:\n      pop\n        /* \"#utility.yul\":18502:19805   */\n      pop\n      pop\n      pop\n        /* \"#utility.yul\":18410:19805   */\n      pop\n      pop\n      jump\t// out\n        /* \"#utility.yul\":19811:19957   */\n    tag_161:\n        /* \"#utility.yul\":19908:19914   */\n      dup3\n        /* \"#utility.yul\":19903:19906   */\n      dup2\n        /* \"#utility.yul\":19898:19901   */\n      dup4\n        /* \"#utility.yul\":19885:19915   */\n      calldatacopy\n        /* \"#utility.yul\":19949:19950   */\n      0x00\n        /* \"#utility.yul\":19940:19946   */\n      dup4\n        /* \"#utility.yul\":19935:19938   */\n      dup4\n        /* \"#utility.yul\":19931:19947   */\n      add\n        /* \"#utility.yul\":19924:19951   */\n      mstore\n        /* \"#utility.yul\":19811:19957   */\n      pop\n      pop\n      pop\n      jump\t// out\n        /* \"#utility.yul\":19987:20304   */\n    tag_162:\n        /* \"#utility.yul\":20085:20088   */\n      0x00\n        /* \"#utility.yul\":20106:20177   */\n      tag_366\n        /* \"#utility.yul\":20170:20176   */\n      dup4\n        /* \"#utility.yul\":20165:20168   */\n      dup6\n        /* \"#utility.yul\":20106:20177   */\n      tag_130\n      jump\t// in\n    tag_366:\n        /* \"#utility.yul\":20099:20177   */\n      swap4\n      pop\n        /* \"#utility.yul\":20187:20243   */\n      tag_367\n        /* \"#utility.yul\":20236:20242   */\n      dup4\n        /* \"#utility.yul\":20231:20234   */\n      dup6\n        /* \"#utility.yul\":20224:20229   */\n      dup5\n        /* \"#utility.yul\":20187:20243   */\n      tag_161\n      jump\t// in\n    tag_367:\n        /* \"#utility.yul\":20268:20297   */\n      tag_368\n        /* \"#utility.yul\":20290:20296   */\n      dup4\n        /* \"#utility.yul\":20268:20297   */\n      tag_111\n      jump\t// in\n    tag_368:\n        /* \"#utility.yul\":20263:20266   */\n      dup5\n        /* \"#utility.yul\":20259:20298   */\n      add\n        /* \"#utility.yul\":20252:20298   */\n      swap1\n      pop\n        /* \"#utility.yul\":19987:20304   */\n      swap4\n      swap3\n      pop\n      pop\n      pop\n      jump\t// out\n        /* \"#utility.yul\":20310:20962   */\n    tag_98:\n        /* \"#utility.yul\":20511:20515   */\n      0x00\n        /* \"#utility.yul\":20549:20552   */\n      0x80\n        /* \"#utility.yul\":20538:20547   */\n      dup3\n        /* \"#utility.yul\":20534:20553   */\n      add\n        /* \"#utility.yul\":20526:20553   */\n      swap1\n      pop\n        /* \"#utility.yul\":20599:20608   */\n      dup2\n        /* \"#utility.yul\":20593:20597   */\n      dup2\n        /* \"#utility.yul\":20589:20609   */\n      sub\n        /* \"#utility.yul\":20585:20586   */\n      0x00\n        /* \"#utility.yul\":20574:20583   */\n      dup4\n        /* \"#utility.yul\":20570:20587   */\n      add\n        /* \"#utility.yul\":20563:20610   */\n      mstore\n        /* \"#utility.yul\":20627:20715   */\n      tag_370\n        /* \"#utility.yul\":20710:20714   */\n      dup2\n        /* \"#utility.yul\":20701:20707   */\n      dup8\n        /* \"#utility.yul\":20693:20699   */\n      dup10\n        /* \"#utility.yul\":20627:20715   */\n      tag_162\n      jump\t// in\n    tag_370:\n        /* \"#utility.yul\":20619:20715   */\n      swap1\n      pop\n        /* \"#utility.yul\":20725:20791   */\n      tag_371\n        /* \"#utility.yul\":20787:20789   */\n      0x20\n        /* \"#utility.yul\":20776:20785   */\n      dup4\n        /* \"#utility.yul\":20772:20790   */\n      add\n        /* \"#utility.yul\":20763:20769   */\n      dup7\n        /* \"#utility.yul\":20725:20791   */\n      tag_132\n      jump\t// in\n    tag_371:\n        /* \"#utility.yul\":20801:20873   */\n      tag_372\n        /* \"#utility.yul\":20869:20871   */\n      0x40\n        /* \"#utility.yul\":20858:20867   */\n      dup4\n        /* \"#utility.yul\":20854:20872   */\n      add\n        /* \"#utility.yul\":20845:20851   */\n      dup6\n        /* \"#utility.yul\":20801:20873   */\n      tag_133\n      jump\t// in\n    tag_372:\n        /* \"#utility.yul\":20883:20955   */\n      tag_373\n        /* \"#utility.yul\":20951:20953   */\n      0x60\n        /* \"#utility.yul\":20940:20949   */\n      dup4\n        /* \"#utility.yul\":20936:20954   */\n      add\n        /* \"#utility.yul\":20927:20933   */\n      dup5\n        /* \"#utility.yul\":20883:20955   */\n      tag_128\n      jump\t// in\n    tag_373:\n        /* \"#utility.yul\":20310:20962   */\n      swap7\n      swap6\n      pop\n      pop\n      pop\n      pop\n      pop\n      pop\n      jump\t// out\n\n    auxdata: 0xa264697066735822122036598abbc57bf9eaa21feecccc818bffadbdbcae544d5a2d889dbdaaa33b3eae64736f6c63430008110033\n}\n",
				"bytecode": {
					"linkReferences": {},
					"object": "608060405234801561001057600080fd5b506113bd806100206000396000f3fe608060405234801561001057600080fd5b50600436106100575760003560e01c80633206b2c61461005c5780635de0f6f61461008c578063cc9e300f146100bc578063e79899bd146100da578063f6a1d12a1461010e575b600080fd5b61007660048036038101906100719190610912565b61012a565b6040516100839190610ac9565b60405180910390f35b6100a660048036038101906100a19190610b17565b6102c4565b6040516100b39190610c7c565b60405180910390f35b6100c46105e3565b6040516100d19190610cad565b60405180910390f35b6100f460048036038101906100ef9190610912565b6105ef565b604051610105959493929190610d3f565b60405180910390f35b61012860048036038101906101239190610e56565b6106ea565b005b610132610888565b6000805490508210610179576040517f08c379a000000000000000000000000000000000000000000000000000000000815260040161017090610f2a565b60405180910390fd5b6000828154811061018d5761018c610f4a565b5b90600052602060002090600502016040518060a00160405290816000820160009054906101000a900473ffffffffffffffffffffffffffffffffffffffff1673ffffffffffffffffffffffffffffffffffffffff1673ffffffffffffffffffffffffffffffffffffffff16815260200160018201805461020c90610fa8565b80601f016020809104026020016040519081016040528092919081815260200182805461023890610fa8565b80156102855780601f1061025a57610100808354040283529160200191610285565b820191906000526020600020905b81548152906001019060200180831161026857829003601f168201915b505050505081526020016002820160009054906101000a900460ff16151515158152602001600382015481526020016004820154815250509050919050565b60606000805b600080549050811015610371578373ffffffffffffffffffffffffffffffffffffffff166000828154811061030257610301610f4a565b5b906000526020600020906005020160000160009054906101000a900473ffffffffffffffffffffffffffffffffffffffff1673ffffffffffffffffffffffffffffffffffffffff160361035e57818061035a90611008565b9250505b808061036990611008565b9150506102ca565b5060008167ffffffffffffffff81111561038e5761038d611050565b5b6040519080825280602002602001820160405280156103c757816020015b6103b4610888565b8152602001906001900390816103ac5790505b5090506000805b6000805490508110156105d7578573ffffffffffffffffffffffffffffffffffffffff166000828154811061040657610405610f4a565b5b906000526020600020906005020160000160009054906101000a900473ffffffffffffffffffffffffffffffffffffffff1673ffffffffffffffffffffffffffffffffffffffff16036105c4576000818154811061046757610466610f4a565b5b90600052602060002090600502016040518060a00160405290816000820160009054906101000a900473ffffffffffffffffffffffffffffffffffffffff1673ffffffffffffffffffffffffffffffffffffffff1673ffffffffffffffffffffffffffffffffffffffff1681526020016001820180546104e690610fa8565b80601f016020809104026020016040519081016040528092919081815260200182805461051290610fa8565b801561055f5780601f106105345761010080835404028352916020019161055f565b820191906000526020600020905b81548152906001019060200180831161054257829003601f168201915b505050505081526020016002820160009054906101000a900460ff16151515158152602001600382015481526020016004820154815250508383815181106105aa576105a9610f4a565b5b602002602001018190525081806105c090611008565b9250505b80806105cf90611008565b9150506103ce565b50819350505050919050565b60008080549050905090565b600081815481106105ff57600080fd5b90600052602060002090600502016000915090508060000160009054906101000a900473ffffffffffffffffffffffffffffffffffffffff169080600101805461064890610fa8565b80601f016020809104026020016040519081016040528092919081815260200182805461067490610fa8565b80156106c15780601f10610696576101008083540402835291602001916106c1565b820191906000526020600020905b8154815290600101906020018083116106a457829003601f168201915b5050505050908060020160009054906101000a900460ff16908060030154908060040154905085565b60006040518060a001604052808773ffffffffffffffffffffffffffffffffffffffff16815260200186868080601f016020809104026020016040519081016040528093929190818152602001838380828437600081840152601f19601f820116905080830192505050505050508152602001841515815260200183815260200142815250908060018154018082558091505060019003906000526020600020906005020160009091909190915060008201518160000160006101000a81548173ffffffffffffffffffffffffffffffffffffffff021916908373ffffffffffffffffffffffffffffffffffffffff16021790555060208201518160010190816107f4919061122b565b5060408201518160020160006101000a81548160ff021916908315150217905550606082015181600301556080820151816004015550508473ffffffffffffffffffffffffffffffffffffffff167f35a8f6cb0689ebeed1bb534a9a366e797fc214c74351d44558d888081cd6b1688585858542604051610879959493929190611339565b60405180910390a25050505050565b6040518060a00160405280600073ffffffffffffffffffffffffffffffffffffffff1681526020016060815260200160001515815260200160008019168152602001600081525090565b600080fd5b600080fd5b6000819050919050565b6108ef816108dc565b81146108fa57600080fd5b50565b60008135905061090c816108e6565b92915050565b600060208284031215610928576109276108d2565b5b6000610936848285016108fd565b91505092915050565b600073ffffffffffffffffffffffffffffffffffffffff82169050919050565b600061096a8261093f565b9050919050565b61097a8161095f565b82525050565b600081519050919050565b600082825260208201905092915050565b60005b838110156109ba57808201518184015260208101905061099f565b60008484015250505050565b6000601f19601f8301169050919050565b60006109e282610980565b6109ec818561098b565b93506109fc81856020860161099c565b610a05816109c6565b840191505092915050565b60008115159050919050565b610a2581610a10565b82525050565b6000819050919050565b610a3e81610a2b565b82525050565b610a4d816108dc565b82525050565b600060a083016000830151610a6b6000860182610971565b5060208301518482036020860152610a8382826109d7565b9150506040830151610a986040860182610a1c565b506060830151610aab6060860182610a35565b506080830151610abe6080860182610a44565b508091505092915050565b60006020820190508181036000830152610ae38184610a53565b905092915050565b610af48161095f565b8114610aff57600080fd5b50565b600081359050610b1181610aeb565b92915050565b600060208284031215610b2d57610b2c6108d2565b5b6000610b3b84828501610b02565b91505092915050565b600081519050919050565b600082825260208201905092915050565b6000819050602082019050919050565b600060a083016000830151610b886000860182610971565b5060208301518482036020860152610ba082826109d7565b9150506040830151610bb56040860182610a1c565b506060830151610bc86060860182610a35565b506080830151610bdb6080860182610a44565b508091505092915050565b6000610bf28383610b70565b905092915050565b6000602082019050919050565b6000610c1282610b44565b610c1c8185610b4f565b935083602082028501610c2e85610b60565b8060005b85811015610c6a5784840389528151610c4b8582610be6565b9450610c5683610bfa565b925060208a01995050600181019050610c32565b50829750879550505050505092915050565b60006020820190508181036000830152610c968184610c07565b905092915050565b610ca7816108dc565b82525050565b6000602082019050610cc26000830184610c9e565b92915050565b610cd18161095f565b82525050565b600082825260208201905092915050565b6000610cf382610980565b610cfd8185610cd7565b9350610d0d81856020860161099c565b610d16816109c6565b840191505092915050565b610d2a81610a10565b82525050565b610d3981610a2b565b82525050565b600060a082019050610d546000830188610cc8565b8181036020830152610d668187610ce8565b9050610d756040830186610d21565b610d826060830185610d30565b610d8f6080830184610c9e565b9695505050505050565b600080fd5b600080fd5b600080fd5b60008083601f840112610dbe57610dbd610d99565b5b8235905067ffffffffffffffff811115610ddb57610dda610d9e565b5b602083019150836001820283011115610df757610df6610da3565b5b9250929050565b610e0781610a10565b8114610e1257600080fd5b50565b600081359050610e2481610dfe565b92915050565b610e3381610a2b565b8114610e3e57600080fd5b50565b600081359050610e5081610e2a565b92915050565b600080600080600060808688031215610e7257610e716108d2565b5b6000610e8088828901610b02565b955050602086013567ffffffffffffffff811115610ea157610ea06108d7565b5b610ead88828901610da8565b94509450506040610ec088828901610e15565b9250506060610ed188828901610e41565b9150509295509295909350565b7f4c6f6720696e646578206f7574206f6620626f756e6473000000000000000000600082015250565b6000610f14601783610cd7565b9150610f1f82610ede565b602082019050919050565b60006020820190508181036000830152610f4381610f07565b9050919050565b7f4e487b7100000000000000000000000000000000000000000000000000000000600052603260045260246000fd5b7f4e487b7100000000000000000000000000000000000000000000000000000000600052602260045260246000fd5b60006002820490506001821680610fc057607f821691505b602082108103610fd357610fd2610f79565b5b50919050565b7f4e487b7100000000000000000000000000000000000000000000000000000000600052601160045260246000fd5b6000611013826108dc565b91507fffffffffffffffffffffffffffffffffffffffffffffffffffffffffffffffff820361104557611044610fd9565b5b600182019050919050565b7f4e487b7100000000000000000000000000000000000000000000000000000000600052604160045260246000fd5b60008190508160005260206000209050919050565b60006020601f8301049050919050565b600082821b905092915050565b6000600883026110e17fffffffffffffffffffffffffffffffffffffffffffffffffffffffffffffffff826110a4565b6110eb86836110a4565b95508019841693508086168417925050509392505050565b6000819050919050565b600061112861112361111e846108dc565b611103565b6108dc565b9050919050565b6000819050919050565b6111428361110d565b61115661114e8261112f565b8484546110b1565b825550505050565b600090565b61116b61115e565b611176818484611139565b505050565b5b8181101561119a5761118f600082611163565b60018101905061117c565b5050565b601f8211156111df576111b08161107f565b6111b984611094565b810160208510156111c8578190505b6111dc6111d485611094565b83018261117b565b50505b505050565b600082821c905092915050565b6000611202600019846008026111e4565b1980831691505092915050565b600061121b83836111f1565b9150826002028217905092915050565b61123482610980565b67ffffffffffffffff81111561124d5761124c611050565b5b6112578254610fa8565b61126282828561119e565b600060209050601f8311600181146112955760008415611283578287015190505b61128d858261120f565b8655506112f5565b601f1984166112a38661107f565b60005b828110156112cb578489015182556001820191506020850194506020810190506112a6565b868310156112e857848901516112e4601f8916826111f1565b8355505b6001600288020188555050505b505050505050565b82818337600083830152505050565b60006113188385610cd7565b93506113258385846112fd565b61132e836109c6565b840190509392505050565b6000608082019050818103600083015261135481878961130c565b90506113636020830186610d21565b6113706040830185610d30565b61137d6060830184610c9e565b969550505050505056fea264697066735822122036598abbc57bf9eaa21feecccc818bffadbdbcae544d5a2d889dbdaaa33b3eae64736f6c63430008110033",
					"opcodes": "PUSH1 0x80 PUSH1 0x40 MSTORE CALLVALUE DUP1 ISZERO PUSH2 0x10 JUMPI PUSH1 0x0 DUP1 REVERT JUMPDEST POP PUSH2 0x13BD DUP1 PUSH2 0x20 PUSH1 0x0 CODECOPY PUSH1 0x0 RETURN INVALID PUSH1 0x80 PUSH1 0x40 MSTORE CALLVALUE DUP1 ISZERO PUSH2 0x10 JUMPI PUSH1 0x0 DUP1 REVERT JUMPDEST POP PUSH1 0x4 CALLDATASIZE LT PUSH2 0x57 JUMPI PUSH1 0x0 CALLDATALOAD PUSH1 0xE0 SHR DUP1 PUSH4 0x3206B2C6 EQ PUSH2 0x5C JUMPI DUP1 PUSH4 0x5DE0F6F6 EQ PUSH2 0x8C JUMPI DUP1 PUSH4 0xCC9E300F EQ PUSH2 0xBC JUMPI DUP1 PUSH4 0xE79899BD EQ PUSH2 0xDA JUMPI DUP1 PUSH4 0xF6A1D12A EQ PUSH2 0x10E JUMPI JUMPDEST PUSH1 0x0 DUP1 REVERT JUMPDEST PUSH2 0x76 PUSH1 0x4 DUP1 CALLDATASIZE SUB DUP2 ADD SWAP1 PUSH2 0x71 SWAP2 SWAP1 PUSH2 0x912 JUMP JUMPDEST PUSH2 0x12A JUMP JUMPDEST PUSH1 0x40 MLOAD PUSH2 0x83 SWAP2 SWAP1 PUSH2 0xAC9 JUMP JUMPDEST PUSH1 0x40 MLOAD DUP1 SWAP2 SUB SWAP1 RETURN JUMPDEST PUSH2 0xA6 PUSH1 0x4 DUP1 CALLDATASIZE SUB DUP2 ADD SWAP1 PUSH2 0xA1 SWAP2 SWAP1 PUSH2 0xB17 JUMP JUMPDEST PUSH2 0x2C4 JUMP JUMPDEST PUSH1 0x40 MLOAD PUSH2 0xB3 SWAP2 SWAP1 PUSH2 0xC7C JUMP JUMPDEST PUSH1 0x40 MLOAD DUP1 SWAP2 SUB SWAP1 RETURN JUMPDEST PUSH2 0xC4 PUSH2 0x5E3 JUMP JUMPDEST PUSH1 0x40 MLOAD PUSH2 0xD1 SWAP2 SWAP1 PUSH2 0xCAD JUMP JUMPDEST PUSH1 0x40 MLOAD DUP1 SWAP2 SUB SWAP1 RETURN JUMPDEST PUSH2 0xF4 PUSH1 0x4 DUP1 CALLDATASIZE SUB DUP2 ADD SWAP1 PUSH2 0xEF SWAP2 SWAP1 PUSH2 0x912 JUMP JUMPDEST PUSH2 0x5EF JUMP JUMPDEST PUSH1 0x40 MLOAD PUSH2 0x105 SWAP6 SWAP5 SWAP4 SWAP3 SWAP2 SWAP1 PUSH2 0xD3F JUMP JUMPDEST PUSH1 0x40 MLOAD DUP1 SWAP2 SUB SWAP1 RETURN JUMPDEST PUSH2 0x128 PUSH1 0x4 DUP1 CALLDATASIZE SUB DUP2 ADD SWAP1 PUSH2 0x123 SWAP2 SWAP1 PUSH2 0xE56 JUMP JUMPDEST PUSH2 0x6EA JUMP JUMPDEST STOP JUMPDEST PUSH2 0x132 PUSH2 0x888 JUMP JUMPDEST PUSH1 0x0 DUP1 SLOAD SWAP1 POP DUP3 LT PUSH2 0x179 JUMPI PUSH1 0x40 MLOAD PUSH32 0x8C379A000000000000000000000000000000000000000000000000000000000 DUP2 MSTORE PUSH1 0x4 ADD PUSH2 0x170 SWAP1 PUSH2 0xF2A JUMP JUMPDEST PUSH1 0x40 MLOAD DUP1 SWAP2 SUB SWAP1 REVERT JUMPDEST PUSH1 0x0 DUP3 DUP2 SLOAD DUP2 LT PUSH2 0x18D JUMPI PUSH2 0x18C PUSH2 0xF4A JUMP JUMPDEST JUMPDEST SWAP1 PUSH1 0x0 MSTORE PUSH1 0x20 PUSH1 0x0 KECCAK256 SWAP1 PUSH1 0x5 MUL ADD PUSH1 0x40 MLOAD DUP1 PUSH1 0xA0 ADD PUSH1 0x40 MSTORE SWAP1 DUP2 PUSH1 0x0 DUP3 ADD PUSH1 0x0 SWAP1 SLOAD SWAP1 PUSH2 0x100 EXP SWAP1 DIV PUSH20 0xFFFFFFFFFFFFFFFFFFFFFFFFFFFFFFFFFFFFFFFF AND PUSH20 0xFFFFFFFFFFFFFFFFFFFFFFFFFFFFFFFFFFFFFFFF AND PUSH20 0xFFFFFFFFFFFFFFFFFFFFFFFFFFFFFFFFFFFFFFFF AND DUP2 MSTORE PUSH1 0x20 ADD PUSH1 0x1 DUP3 ADD DUP1 SLOAD PUSH2 0x20C SWAP1 PUSH2 0xFA8 JUMP JUMPDEST DUP1 PUSH1 0x1F ADD PUSH1 0x20 DUP1 SWAP2 DIV MUL PUSH1 0x20 ADD PUSH1 0x40 MLOAD SWAP1 DUP2 ADD PUSH1 0x40 MSTORE DUP1 SWAP3 SWAP2 SWAP1 DUP2 DUP2 MSTORE PUSH1 0x20 ADD DUP3 DUP1 SLOAD PUSH2 0x238 SWAP1 PUSH2 0xFA8 JUMP JUMPDEST DUP1 ISZERO PUSH2 0x285 JUMPI DUP1 PUSH1 0x1F LT PUSH2 0x25A JUMPI PUSH2 0x100 DUP1 DUP4 SLOAD DIV MUL DUP4 MSTORE SWAP2 PUSH1 0x20 ADD SWAP2 PUSH2 0x285 JUMP JUMPDEST DUP3 ADD SWAP2 SWAP1 PUSH1 0x0 MSTORE PUSH1 0x20 PUSH1 0x0 KECCAK256 SWAP1 JUMPDEST DUP2 SLOAD DUP2 MSTORE SWAP1 PUSH1 0x1 ADD SWAP1 PUSH1 0x20 ADD DUP1 DUP4 GT PUSH2 0x268 JUMPI DUP3 SWAP1 SUB PUSH1 0x1F AND DUP3 ADD SWAP2 JUMPDEST POP POP POP POP POP DUP2 MSTORE PUSH1 0x20 ADD PUSH1 0x2 DUP3 ADD PUSH1 0x0 SWAP1 SLOAD SWAP1 PUSH2 0x100 EXP SWAP1 DIV PUSH1 0xFF AND ISZERO ISZERO ISZERO ISZERO DUP2 MSTORE PUSH1 0x20 ADD PUSH1 0x3 DUP3 ADD SLOAD DUP2 MSTORE PUSH1 0x20 ADD PUSH1 0x4 DUP3 ADD SLOAD DUP2 MSTORE POP POP SWAP1 POP SWAP2 SWAP1 POP JUMP JUMPDEST PUSH1 0x60 PUSH1 0x0 DUP1 JUMPDEST PUSH1 0x0 DUP1 SLOAD SWAP1 POP DUP2 LT ISZERO PUSH2 0x371 JUMPI DUP4 PUSH20 0xFFFFFFFFFFFFFFFFFFFFFFFFFFFFFFFFFFFFFFFF AND PUSH1 0x0 DUP3 DUP2 SLOAD DUP2 LT PUSH2 0x302 JUMPI PUSH2 0x301 PUSH2 0xF4A JUMP JUMPDEST JUMPDEST SWAP1 PUSH1 0x0 MSTORE PUSH1 0x20 PUSH1 0x0 KECCAK256 SWAP1 PUSH1 0x5 MUL ADD PUSH1 0x0 ADD PUSH1 0x0 SWAP1 SLOAD SWAP1 PUSH2 0x100 EXP SWAP1 DIV PUSH20 0xFFFFFFFFFFFFFFFFFFFFFFFFFFFFFFFFFFFFFFFF AND PUSH20 0xFFFFFFFFFFFFFFFFFFFFFFFFFFFFFFFFFFFFFFFF AND SUB PUSH2 0x35E JUMPI DUP2 DUP1 PUSH2 0x35A SWAP1 PUSH2 0x1008 JUMP JUMPDEST SWAP3 POP POP JUMPDEST DUP1 DUP1 PUSH2 0x369 SWAP1 PUSH2 0x1008 JUMP JUMPDEST SWAP2 POP POP PUSH2 0x2CA JUMP JUMPDEST POP PUSH1 0x0 DUP2 PUSH8 0xFFFFFFFFFFFFFFFF DUP2 GT ISZERO PUSH2 0x38E JUMPI PUSH2 0x38D PUSH2 0x1050 JUMP JUMPDEST JUMPDEST PUSH1 0x40 MLOAD SWAP1 DUP1 DUP3 MSTORE DUP1 PUSH1 0x20 MUL PUSH1 0x20 ADD DUP3 ADD PUSH1 0x40 MSTORE DUP1 ISZERO PUSH2 0x3C7 JUMPI DUP2 PUSH1 0x20 ADD JUMPDEST PUSH2 0x3B4 PUSH2 0x888 JUMP JUMPDEST DUP2 MSTORE PUSH1 0x20 ADD SWAP1 PUSH1 0x1 SWAP1 SUB SWAP1 DUP2 PUSH2 0x3AC JUMPI SWAP1 POP JUMPDEST POP SWAP1 POP PUSH1 0x0 DUP1 JUMPDEST PUSH1 0x0 DUP1 SLOAD SWAP1 POP DUP2 LT ISZERO PUSH2 0x5D7 JUMPI DUP6 PUSH20 0xFFFFFFFFFFFFFFFFFFFFFFFFFFFFFFFFFFFFFFFF AND PUSH1 0x0 DUP3 DUP2 SLOAD DUP2 LT PUSH2 0x406 JUMPI PUSH2 0x405 PUSH2 0xF4A JUMP JUMPDEST JUMPDEST SWAP1 PUSH1 0x0 MSTORE PUSH1 0x20 PUSH1 0x0 KECCAK256 SWAP1 PUSH1 0x5 MUL ADD PUSH1 0x0 ADD PUSH1 0x0 SWAP1 SLOAD SWAP1 PUSH2 0x100 EXP SWAP1 DIV PUSH20 0xFFFFFFFFFFFFFFFFFFFFFFFFFFFFFFFFFFFFFFFF AND PUSH20 0xFFFFFFFFFFFFFFFFFFFFFFFFFFFFFFFFFFFFFFFF AND SUB PUSH2 0x5C4 JUMPI PUSH1 0x0 DUP2 DUP2 SLOAD DUP2 LT PUSH2 0x467 JUMPI PUSH2 0x466 PUSH2 0xF4A JUMP JUMPDEST JUMPDEST SWAP1 PUSH1 0x0 MSTORE PUSH1 0x20 PUSH1 0x0 KECCAK256 SWAP1 PUSH1 0x5 MUL ADD PUSH1 0x40 MLOAD DUP1 PUSH1 0xA0 ADD PUSH1 0x40 MSTORE SWAP1 DUP2 PUSH1 0x0 DUP3 ADD PUSH1 0x0 SWAP1 SLOAD SWAP1 PUSH2 0x100 EXP SWAP1 DIV PUSH20 0xFFFFFFFFFFFFFFFFFFFFFFFFFFFFFFFFFFFFFFFF AND PUSH20 0xFFFFFFFFFFFFFFFFFFFFFFFFFFFFFFFFFFFFFFFF AND PUSH20 0xFFFFFFFFFFFFFFFFFFFFFFFFFFFFFFFFFFFFFFFF AND DUP2 MSTORE PUSH1 0x20 ADD PUSH1 0x1 DUP3 ADD DUP1 SLOAD PUSH2 0x4E6 SWAP1 PUSH2 0xFA8 JUMP JUMPDEST DUP1 PUSH1 0x1F ADD PUSH1 0x20 DUP1 SWAP2 DIV MUL PUSH1 0x20 ADD PUSH1 0x40 MLOAD SWAP1 DUP2 ADD PUSH1 0x40 MSTORE DUP1 SWAP3 SWAP2 SWAP1 DUP2 DUP2 MSTORE PUSH1 0x20 ADD DUP3 DUP1 SLOAD PUSH2 0x512 SWAP1 PUSH2 0xFA8 JUMP JUMPDEST DUP1 ISZERO PUSH2 0x55F JUMPI DUP1 PUSH1 0x1F LT PUSH2 0x534 JUMPI PUSH2 0x100 DUP1 DUP4 SLOAD DIV MUL DUP4 MSTORE SWAP2 PUSH1 0x20 ADD SWAP2 PUSH2 0x55F JUMP JUMPDEST DUP3 ADD SWAP2 SWAP1 PUSH1 0x0 MSTORE PUSH1 0x20 PUSH1 0x0 KECCAK256 SWAP1 JUMPDEST DUP2 SLOAD DUP2 MSTORE SWAP1 PUSH1 0x1 ADD SWAP1 PUSH1 0x20 ADD DUP1 DUP4 GT PUSH2 0x542 JUMPI DUP3 SWAP1 SUB PUSH1 0x1F AND DUP3 ADD SWAP2 JUMPDEST POP POP POP POP POP DUP2 MSTORE PUSH1 0x20 ADD PUSH1 0x2 DUP3 ADD PUSH1 0x0 SWAP1 SLOAD SWAP1 PUSH2 0x100 EXP SWAP1 DIV PUSH1 0xFF AND ISZERO ISZERO ISZERO ISZERO DUP2 MSTORE PUSH1 0x20 ADD PUSH1 0x3 DUP3 ADD SLOAD DUP2 MSTORE PUSH1 0x20 ADD PUSH1 0x4 DUP3 ADD SLOAD DUP2 MSTORE POP POP DUP4 DUP4 DUP2 MLOAD DUP2 LT PUSH2 0x5AA JUMPI PUSH2 0x5A9 PUSH2 0xF4A JUMP JUMPDEST JUMPDEST PUSH1 0x20 MUL PUSH1 0x20 ADD ADD DUP2 SWAP1 MSTORE POP DUP2 DUP1 PUSH2 0x5C0 SWAP1 PUSH2 0x1008 JUMP JUMPDEST SWAP3 POP POP JUMPDEST DUP1 DUP1 PUSH2 0x5CF SWAP1 PUSH2 0x1008 JUMP JUMPDEST SWAP2 POP POP PUSH2 0x3CE JUMP JUMPDEST POP DUP2 SWAP4 POP POP POP POP SWAP2 SWAP1 POP JUMP JUMPDEST PUSH1 0x0 DUP1 DUP1 SLOAD SWAP1 POP SWAP1 POP SWAP1 JUMP JUMPDEST PUSH1 0x0 DUP2 DUP2 SLOAD DUP2 LT PUSH2 0x5FF JUMPI PUSH1 0x0 DUP1 REVERT JUMPDEST SWAP1 PUSH1 0x0 MSTORE PUSH1 0x20 PUSH1 0x0 KECCAK256 SWAP1 PUSH1 0x5 MUL ADD PUSH1 0x0 SWAP2 POP SWAP1 POP DUP1 PUSH1 0x0 ADD PUSH1 0x0 SWAP1 SLOAD SWAP1 PUSH2 0x100 EXP SWAP1 DIV PUSH20 0xFFFFFFFFFFFFFFFFFFFFFFFFFFFFFFFFFFFFFFFF AND SWAP1 DUP1 PUSH1 0x1 ADD DUP1 SLOAD PUSH2 0x648 SWAP1 PUSH2 0xFA8 JUMP JUMPDEST DUP1 PUSH1 0x1F ADD PUSH1 0x20 DUP1 SWAP2 DIV MUL PUSH1 0x20 ADD PUSH1 0x40 MLOAD SWAP1 DUP2 ADD PUSH1 0x40 MSTORE DUP1 SWAP3 SWAP2 SWAP1 DUP2 DUP2 MSTORE PUSH1 0x20 ADD DUP3 DUP1 SLOAD PUSH2 0x674 SWAP1 PUSH2 0xFA8 JUMP JUMPDEST DUP1 ISZERO PUSH2 0x6C1 JUMPI DUP1 PUSH1 0x1F LT PUSH2 0x696 JUMPI PUSH2 0x100 DUP1 DUP4 SLOAD DIV MUL DUP4 MSTORE SWAP2 PUSH1 0x20 ADD SWAP2 PUSH2 0x6C1 JUMP JUMPDEST DUP3 ADD SWAP2 SWAP1 PUSH1 0x0 MSTORE PUSH1 0x20 PUSH1 0x0 KECCAK256 SWAP1 JUMPDEST DUP2 SLOAD DUP2 MSTORE SWAP1 PUSH1 0x1 ADD SWAP1 PUSH1 0x20 ADD DUP1 DUP4 GT PUSH2 0x6A4 JUMPI DUP3 SWAP1 SUB PUSH1 0x1F AND DUP3 ADD SWAP2 JUMPDEST POP POP POP POP POP SWAP1 DUP1 PUSH1 0x2 ADD PUSH1 0x0 SWAP1 SLOAD SWAP1 PUSH2 0x100 EXP SWAP1 DIV PUSH1 0xFF AND SWAP1 DUP1 PUSH1 0x3 ADD SLOAD SWAP1 DUP1 PUSH1 0x4 ADD SLOAD SWAP1 POP DUP6 JUMP JUMPDEST PUSH1 0x0 PUSH1 0x40 MLOAD DUP1 PUSH1 0xA0 ADD PUSH1 0x40 MSTORE DUP1 DUP8 PUSH20 0xFFFFFFFFFFFFFFFFFFFFFFFFFFFFFFFFFFFFFFFF AND DUP2 MSTORE PUSH1 0x20 ADD DUP7 DUP7 DUP1 DUP1 PUSH1 0x1F ADD PUSH1 0x20 DUP1 SWAP2 DIV MUL PUSH1 0x20 ADD PUSH1 0x40 MLOAD SWAP1 DUP2 ADD PUSH1 0x40 MSTORE DUP1 SWAP4 SWAP3 SWAP2 SWAP1 DUP2 DUP2 MSTORE PUSH1 0x20 ADD DUP4 DUP4 DUP1 DUP3 DUP5 CALLDATACOPY PUSH1 0x0 DUP2 DUP5 ADD MSTORE PUSH1 0x1F NOT PUSH1 0x1F DUP3 ADD AND SWAP1 POP DUP1 DUP4 ADD SWAP3 POP POP POP POP POP POP POP DUP2 MSTORE PUSH1 0x20 ADD DUP5 ISZERO ISZERO DUP2 MSTORE PUSH1 0x20 ADD DUP4 DUP2 MSTORE PUSH1 0x20 ADD TIMESTAMP DUP2 MSTORE POP SWAP1 DUP1 PUSH1 0x1 DUP2 SLOAD ADD DUP1 DUP3 SSTORE DUP1 SWAP2 POP POP PUSH1 0x1 SWAP1 SUB SWAP1 PUSH1 0x0 MSTORE PUSH1 0x20 PUSH1 0x0 KECCAK256 SWAP1 PUSH1 0x5 MUL ADD PUSH1 0x0 SWAP1 SWAP2 SWAP1 SWAP2 SWAP1 SWAP2 POP PUSH1 0x0 DUP3 ADD MLOAD DUP2 PUSH1 0x0 ADD PUSH1 0x0 PUSH2 0x100 EXP DUP2 SLOAD DUP2 PUSH20 0xFFFFFFFFFFFFFFFFFFFFFFFFFFFFFFFFFFFFFFFF MUL NOT AND SWAP1 DUP4 PUSH20 0xFFFFFFFFFFFFFFFFFFFFFFFFFFFFFFFFFFFFFFFF AND MUL OR SWAP1 SSTORE POP PUSH1 0x20 DUP3 ADD MLOAD DUP2 PUSH1 0x1 ADD SWAP1 DUP2 PUSH2 0x7F4 SWAP2 SWAP1 PUSH2 0x122B JUMP JUMPDEST POP PUSH1 0x40 DUP3 ADD MLOAD DUP2 PUSH1 0x2 ADD PUSH1 0x0 PUSH2 0x100 EXP DUP2 SLOAD DUP2 PUSH1 0xFF MUL NOT AND SWAP1 DUP4 ISZERO ISZERO MUL OR SWAP1 SSTORE POP PUSH1 0x60 DUP3 ADD MLOAD DUP2 PUSH1 0x3 ADD SSTORE PUSH1 0x80 DUP3 ADD MLOAD DUP2 PUSH1 0x4 ADD SSTORE POP POP DUP5 PUSH20 0xFFFFFFFFFFFFFFFFFFFFFFFFFFFFFFFFFFFFFFFF AND PUSH32 0x35A8F6CB0689EBEED1BB534A9A366E797FC214C74351D44558D888081CD6B168 DUP6 DUP6 DUP6 DUP6 TIMESTAMP PUSH1 0x40 MLOAD PUSH2 0x879 SWAP6 SWAP5 SWAP4 SWAP3 SWAP2 SWAP1 PUSH2 0x1339 JUMP JUMPDEST PUSH1 0x40 MLOAD DUP1 SWAP2 SUB SWAP1 LOG2 POP POP POP POP POP JUMP JUMPDEST PUSH1 0x40 MLOAD DUP1 PUSH1 0xA0 ADD PUSH1 0x40 MSTORE DUP1 PUSH1 0x0 PUSH20 0xFFFFFFFFFFFFFFFFFFFFFFFFFFFFFFFFFFFFFFFF AND DUP2 MSTORE PUSH1 0x20 ADD PUSH1 0x60 DUP2 MSTORE PUSH1 0x20 ADD PUSH1 0x0 ISZERO ISZERO DUP2 MSTORE PUSH1 0x20 ADD PUSH1 0x0 DUP1 NOT AND DUP2 MSTORE PUSH1 0x20 ADD PUSH1 0x0 DUP2 MSTORE POP SWAP1 JUMP JUMPDEST PUSH1 0x0 DUP1 REVERT JUMPDEST PUSH1 0x0 DUP1 REVERT JUMPDEST PUSH1 0x0 DUP2 SWAP1 POP SWAP2 SWAP1 POP JUMP JUMPDEST PUSH2 0x8EF DUP2 PUSH2 0x8DC JUMP JUMPDEST DUP2 EQ PUSH2 0x8FA JUMPI PUSH1 0x0 DUP1 REVERT JUMPDEST POP JUMP JUMPDEST PUSH1 0x0 DUP2 CALLDATALOAD SWAP1 POP PUSH2 0x90C DUP2 PUSH2 0x8E6 JUMP JUMPDEST SWAP3 SWAP2 POP POP JUMP JUMPDEST PUSH1 0x0 PUSH1 0x20 DUP3 DUP5 SUB SLT ISZERO PUSH2 0x928 JUMPI PUSH2 0x927 PUSH2 0x8D2 JUMP JUMPDEST JUMPDEST PUSH1 0x0 PUSH2 0x936 DUP5 DUP3 DUP6 ADD PUSH2 0x8FD JUMP JUMPDEST SWAP2 POP POP SWAP3 SWAP2 POP POP JUMP JUMPDEST PUSH1 0x0 PUSH20 0xFFFFFFFFFFFFFFFFFFFFFFFFFFFFFFFFFFFFFFFF DUP3 AND SWAP1 POP SWAP2 SWAP1 POP JUMP JUMPDEST PUSH1 0x0 PUSH2 0x96A DUP3 PUSH2 0x93F JUMP JUMPDEST SWAP1 POP SWAP2 SWAP1 POP JUMP JUMPDEST PUSH2 0x97A DUP2 PUSH2 0x95F JUMP JUMPDEST DUP3 MSTORE POP POP JUMP JUMPDEST PUSH1 0x0 DUP2 MLOAD SWAP1 POP SWAP2 SWAP1 POP JUMP JUMPDEST PUSH1 0x0 DUP3 DUP3 MSTORE PUSH1 0x20 DUP3 ADD SWAP1 POP SWAP3 SWAP2 POP POP JUMP JUMPDEST PUSH1 0x0 JUMPDEST DUP4 DUP2 LT ISZERO PUSH2 0x9BA JUMPI DUP1 DUP3 ADD MLOAD DUP2 DUP5 ADD MSTORE PUSH1 0x20 DUP2 ADD SWAP1 POP PUSH2 0x99F JUMP JUMPDEST PUSH1 0x0 DUP5 DUP5 ADD MSTORE POP POP POP POP JUMP JUMPDEST PUSH1 0x0 PUSH1 0x1F NOT PUSH1 0x1F DUP4 ADD AND SWAP1 POP SWAP2 SWAP1 POP JUMP JUMPDEST PUSH1 0x0 PUSH2 0x9E2 DUP3 PUSH2 0x980 JUMP JUMPDEST PUSH2 0x9EC DUP2 DUP6 PUSH2 0x98B JUMP JUMPDEST SWAP4 POP PUSH2 0x9FC DUP2 DUP6 PUSH1 0x20 DUP7 ADD PUSH2 0x99C JUMP JUMPDEST PUSH2 0xA05 DUP2 PUSH2 0x9C6 JUMP JUMPDEST DUP5 ADD SWAP2 POP POP SWAP3 SWAP2 POP POP JUMP JUMPDEST PUSH1 0x0 DUP2 ISZERO ISZERO SWAP1 POP SWAP2 SWAP1 POP JUMP JUMPDEST PUSH2 0xA25 DUP2 PUSH2 0xA10 JUMP JUMPDEST DUP3 MSTORE POP POP JUMP JUMPDEST PUSH1 0x0 DUP2 SWAP1 POP SWAP2 SWAP1 POP JUMP JUMPDEST PUSH2 0xA3E DUP2 PUSH2 0xA2B JUMP JUMPDEST DUP3 MSTORE POP POP JUMP JUMPDEST PUSH2 0xA4D DUP2 PUSH2 0x8DC JUMP JUMPDEST DUP3 MSTORE POP POP JUMP JUMPDEST PUSH1 0x0 PUSH1 0xA0 DUP4 ADD PUSH1 0x0 DUP4 ADD MLOAD PUSH2 0xA6B PUSH1 0x0 DUP7 ADD DUP3 PUSH2 0x971 JUMP JUMPDEST POP PUSH1 0x20 DUP4 ADD MLOAD DUP5 DUP3 SUB PUSH1 0x20 DUP7 ADD MSTORE PUSH2 0xA83 DUP3 DUP3 PUSH2 0x9D7 JUMP JUMPDEST SWAP2 POP POP PUSH1 0x40 DUP4 ADD MLOAD PUSH2 0xA98 PUSH1 0x40 DUP7 ADD DUP3 PUSH2 0xA1C JUMP JUMPDEST POP PUSH1 0x60 DUP4 ADD MLOAD PUSH2 0xAAB PUSH1 0x60 DUP7 ADD DUP3 PUSH2 0xA35 JUMP JUMPDEST POP PUSH1 0x80 DUP4 ADD MLOAD PUSH2 0xABE PUSH1 0x80 DUP7 ADD DUP3 PUSH2 0xA44 JUMP JUMPDEST POP DUP1 SWAP2 POP POP SWAP3 SWAP2 POP POP JUMP JUMPDEST PUSH1 0x0 PUSH1 0x20 DUP3 ADD SWAP1 POP DUP2 DUP2 SUB PUSH1 0x0 DUP4 ADD MSTORE PUSH2 0xAE3 DUP2 DUP5 PUSH2 0xA53 JUMP JUMPDEST SWAP1 POP SWAP3 SWAP2 POP POP JUMP JUMPDEST PUSH2 0xAF4 DUP2 PUSH2 0x95F JUMP JUMPDEST DUP2 EQ PUSH2 0xAFF JUMPI PUSH1 0x0 DUP1 REVERT JUMPDEST POP JUMP JUMPDEST PUSH1 0x0 DUP2 CALLDATALOAD SWAP1 POP PUSH2 0xB11 DUP2 PUSH2 0xAEB JUMP JUMPDEST SWAP3 SWAP2 POP POP JUMP JUMPDEST PUSH1 0x0 PUSH1 0x20 DUP3 DUP5 SUB SLT ISZERO PUSH2 0xB2D JUMPI PUSH2 0xB2C PUSH2 0x8D2 JUMP JUMPDEST JUMPDEST PUSH1 0x0 PUSH2 0xB3B DUP5 DUP3 DUP6 ADD PUSH2 0xB02 JUMP JUMPDEST SWAP2 POP POP SWAP3 SWAP2 POP POP JUMP JUMPDEST PUSH1 0x0 DUP2 MLOAD SWAP1 POP SWAP2 SWAP1 POP JUMP JUMPDEST PUSH1 0x0 DUP3 DUP3 MSTORE PUSH1 0x20 DUP3 ADD SWAP1 POP SWAP3 SWAP2 POP POP JUMP JUMPDEST PUSH1 0x0 DUP2 SWAP1 POP PUSH1 0x20 DUP3 ADD SWAP1 POP SWAP2 SWAP1 POP JUMP JUMPDEST PUSH1 0x0 PUSH1 0xA0 DUP4 ADD PUSH1 0x0 DUP4 ADD MLOAD PUSH2 0xB88 PUSH1 0x0 DUP7 ADD DUP3 PUSH2 0x971 JUMP JUMPDEST POP PUSH1 0x20 DUP4 ADD MLOAD DUP5 DUP3 SUB PUSH1 0x20 DUP7 ADD MSTORE PUSH2 0xBA0 DUP3 DUP3 PUSH2 0x9D7 JUMP JUMPDEST SWAP2 POP POP PUSH1 0x40 DUP4 ADD MLOAD PUSH2 0xBB5 PUSH1 0x40 DUP7 ADD DUP3 PUSH2 0xA1C JUMP JUMPDEST POP PUSH1 0x60 DUP4 ADD MLOAD PUSH2 0xBC8 PUSH1 0x60 DUP7 ADD DUP3 PUSH2 0xA35 JUMP JUMPDEST POP PUSH1 0x80 DUP4 ADD MLOAD PUSH2 0xBDB PUSH1 0x80 DUP7 ADD DUP3 PUSH2 0xA44 JUMP JUMPDEST POP DUP1 SWAP2 POP POP SWAP3 SWAP2 POP POP JUMP JUMPDEST PUSH1 0x0 PUSH2 0xBF2 DUP4 DUP4 PUSH2 0xB70 JUMP JUMPDEST SWAP1 POP SWAP3 SWAP2 POP POP JUMP JUMPDEST PUSH1 0x0 PUSH1 0x20 DUP3 ADD SWAP1 POP SWAP2 SWAP1 POP JUMP JUMPDEST PUSH1 0x0 PUSH2 0xC12 DUP3 PUSH2 0xB44 JUMP JUMPDEST PUSH2 0xC1C DUP2 DUP6 PUSH2 0xB4F JUMP JUMPDEST SWAP4 POP DUP4 PUSH1 0x20 DUP3 MUL DUP6 ADD PUSH2 0xC2E DUP6 PUSH2 0xB60 JUMP JUMPDEST DUP1 PUSH1 0x0 JUMPDEST DUP6 DUP2 LT ISZERO PUSH2 0xC6A JUMPI DUP5 DUP5 SUB DUP10 MSTORE DUP2 MLOAD PUSH2 0xC4B DUP6 DUP3 PUSH2 0xBE6 JUMP JUMPDEST SWAP5 POP PUSH2 0xC56 DUP4 PUSH2 0xBFA JUMP JUMPDEST SWAP3 POP PUSH1 0x20 DUP11 ADD SWAP10 POP POP PUSH1 0x1 DUP2 ADD SWAP1 POP PUSH2 0xC32 JUMP JUMPDEST POP DUP3 SWAP8 POP DUP8 SWAP6 POP POP POP POP POP POP SWAP3 SWAP2 POP POP JUMP JUMPDEST PUSH1 0x0 PUSH1 0x20 DUP3 ADD SWAP1 POP DUP2 DUP2 SUB PUSH1 0x0 DUP4 ADD MSTORE PUSH2 0xC96 DUP2 DUP5 PUSH2 0xC07 JUMP JUMPDEST SWAP1 POP SWAP3 SWAP2 POP POP JUMP JUMPDEST PUSH2 0xCA7 DUP2 PUSH2 0x8DC JUMP JUMPDEST DUP3 MSTORE POP POP JUMP JUMPDEST PUSH1 0x0 PUSH1 0x20 DUP3 ADD SWAP1 POP PUSH2 0xCC2 PUSH1 0x0 DUP4 ADD DUP5 PUSH2 0xC9E JUMP JUMPDEST SWAP3 SWAP2 POP POP JUMP JUMPDEST PUSH2 0xCD1 DUP2 PUSH2 0x95F JUMP JUMPDEST DUP3 MSTORE POP POP JUMP JUMPDEST PUSH1 0x0 DUP3 DUP3 MSTORE PUSH1 0x20 DUP3 ADD SWAP1 POP SWAP3 SWAP2 POP POP JUMP JUMPDEST PUSH1 0x0 PUSH2 0xCF3 DUP3 PUSH2 0x980 JUMP JUMPDEST PUSH2 0xCFD DUP2 DUP6 PUSH2 0xCD7 JUMP JUMPDEST SWAP4 POP PUSH2 0xD0D DUP2 DUP6 PUSH1 0x20 DUP7 ADD PUSH2 0x99C JUMP JUMPDEST PUSH2 0xD16 DUP2 PUSH2 0x9C6 JUMP JUMPDEST DUP5 ADD SWAP2 POP POP SWAP3 SWAP2 POP POP JUMP JUMPDEST PUSH2 0xD2A DUP2 PUSH2 0xA10 JUMP JUMPDEST DUP3 MSTORE POP POP JUMP JUMPDEST PUSH2 0xD39 DUP2 PUSH2 0xA2B JUMP JUMPDEST DUP3 MSTORE POP POP JUMP JUMPDEST PUSH1 0x0 PUSH1 0xA0 DUP3 ADD SWAP1 POP PUSH2 0xD54 PUSH1 0x0 DUP4 ADD DUP9 PUSH2 0xCC8 JUMP JUMPDEST DUP2 DUP2 SUB PUSH1 0x20 DUP4 ADD MSTORE PUSH2 0xD66 DUP2 DUP8 PUSH2 0xCE8 JUMP JUMPDEST SWAP1 POP PUSH2 0xD75 PUSH1 0x40 DUP4 ADD DUP7 PUSH2 0xD21 JUMP JUMPDEST PUSH2 0xD82 PUSH1 0x60 DUP4 ADD DUP6 PUSH2 0xD30 JUMP JUMPDEST PUSH2 0xD8F PUSH1 0x80 DUP4 ADD DUP5 PUSH2 0xC9E JUMP JUMPDEST SWAP7 SWAP6 POP POP POP POP POP POP JUMP JUMPDEST PUSH1 0x0 DUP1 REVERT JUMPDEST PUSH1 0x0 DUP1 REVERT JUMPDEST PUSH1 0x0 DUP1 REVERT JUMPDEST PUSH1 0x0 DUP1 DUP4 PUSH1 0x1F DUP5 ADD SLT PUSH2 0xDBE JUMPI PUSH2 0xDBD PUSH2 0xD99 JUMP JUMPDEST JUMPDEST DUP3 CALLDATALOAD SWAP1 POP PUSH8 0xFFFFFFFFFFFFFFFF DUP2 GT ISZERO PUSH2 0xDDB JUMPI PUSH2 0xDDA PUSH2 0xD9E JUMP JUMPDEST JUMPDEST PUSH1 0x20 DUP4 ADD SWAP2 POP DUP4 PUSH1 0x1 DUP3 MUL DUP4 ADD GT ISZERO PUSH2 0xDF7 JUMPI PUSH2 0xDF6 PUSH2 0xDA3 JUMP JUMPDEST JUMPDEST SWAP3 POP SWAP3 SWAP1 POP JUMP JUMPDEST PUSH2 0xE07 DUP2 PUSH2 0xA10 JUMP JUMPDEST DUP2 EQ PUSH2 0xE12 JUMPI PUSH1 0x0 DUP1 REVERT JUMPDEST POP JUMP JUMPDEST PUSH1 0x0 DUP2 CALLDATALOAD SWAP1 POP PUSH2 0xE24 DUP2 PUSH2 0xDFE JUMP JUMPDEST SWAP3 SWAP2 POP POP JUMP JUMPDEST PUSH2 0xE33 DUP2 PUSH2 0xA2B JUMP JUMPDEST DUP2 EQ PUSH2 0xE3E JUMPI PUSH1 0x0 DUP1 REVERT JUMPDEST POP JUMP JUMPDEST PUSH1 0x0 DUP2 CALLDATALOAD SWAP1 POP PUSH2 0xE50 DUP2 PUSH2 0xE2A JUMP JUMPDEST SWAP3 SWAP2 POP POP JUMP JUMPDEST PUSH1 0x0 DUP1 PUSH1 0x0 DUP1 PUSH1 0x0 PUSH1 0x80 DUP7 DUP9 SUB SLT ISZERO PUSH2 0xE72 JUMPI PUSH2 0xE71 PUSH2 0x8D2 JUMP JUMPDEST JUMPDEST PUSH1 0x0 PUSH2 0xE80 DUP9 DUP3 DUP10 ADD PUSH2 0xB02 JUMP JUMPDEST SWAP6 POP POP PUSH1 0x20 DUP7 ADD CALLDATALOAD PUSH8 0xFFFFFFFFFFFFFFFF DUP2 GT ISZERO PUSH2 0xEA1 JUMPI PUSH2 0xEA0 PUSH2 0x8D7 JUMP JUMPDEST JUMPDEST PUSH2 0xEAD DUP9 DUP3 DUP10 ADD PUSH2 0xDA8 JUMP JUMPDEST SWAP5 POP SWAP5 POP POP PUSH1 0x40 PUSH2 0xEC0 DUP9 DUP3 DUP10 ADD PUSH2 0xE15 JUMP JUMPDEST SWAP3 POP POP PUSH1 0x60 PUSH2 0xED1 DUP9 DUP3 DUP10 ADD PUSH2 0xE41 JUMP JUMPDEST SWAP2 POP POP SWAP3 SWAP6 POP SWAP3 SWAP6 SWAP1 SWAP4 POP JUMP JUMPDEST PUSH32 0x4C6F6720696E646578206F7574206F6620626F756E6473000000000000000000 PUSH1 0x0 DUP3 ADD MSTORE POP JUMP JUMPDEST PUSH1 0x0 PUSH2 0xF14 PUSH1 0x17 DUP4 PUSH2 0xCD7 JUMP JUMPDEST SWAP2 POP PUSH2 0xF1F DUP3 PUSH2 0xEDE JUMP JUMPDEST PUSH1 0x20 DUP3 ADD SWAP1 POP SWAP2 SWAP1 POP JUMP JUMPDEST PUSH1 0x0 PUSH1 0x20 DUP3 ADD SWAP1 POP DUP2 DUP2 SUB PUSH1 0x0 DUP4 ADD MSTORE PUSH2 0xF43 DUP2 PUSH2 0xF07 JUMP JUMPDEST SWAP1 POP SWAP2 SWAP1 POP JUMP JUMPDEST PUSH32 0x4E487B7100000000000000000000000000000000000000000000000000000000 PUSH1 0x0 MSTORE PUSH1 0x32 PUSH1 0x4 MSTORE PUSH1 0x24 PUSH1 0x0 REVERT JUMPDEST PUSH32 0x4E487B7100000000000000000000000000000000000000000000000000000000 PUSH1 0x0 MSTORE PUSH1 0x22 PUSH1 0x4 MSTORE PUSH1 0x24 PUSH1 0x0 REVERT JUMPDEST PUSH1 0x0 PUSH1 0x2 DUP3 DIV SWAP1 POP PUSH1 0x1 DUP3 AND DUP1 PUSH2 0xFC0 JUMPI PUSH1 0x7F DUP3 AND SWAP2 POP JUMPDEST PUSH1 0x20 DUP3 LT DUP2 SUB PUSH2 0xFD3 JUMPI PUSH2 0xFD2 PUSH2 0xF79 JUMP JUMPDEST JUMPDEST POP SWAP2 SWAP1 POP JUMP JUMPDEST PUSH32 0x4E487B7100000000000000000000000000000000000000000000000000000000 PUSH1 0x0 MSTORE PUSH1 0x11 PUSH1 0x4 MSTORE PUSH1 0x24 PUSH1 0x0 REVERT JUMPDEST PUSH1 0x0 PUSH2 0x1013 DUP3 PUSH2 0x8DC JUMP JUMPDEST SWAP2 POP PUSH32 0xFFFFFFFFFFFFFFFFFFFFFFFFFFFFFFFFFFFFFFFFFFFFFFFFFFFFFFFFFFFFFFFF DUP3 SUB PUSH2 0x1045 JUMPI PUSH2 0x1044 PUSH2 0xFD9 JUMP JUMPDEST JUMPDEST PUSH1 0x1 DUP3 ADD SWAP1 POP SWAP2 SWAP1 POP JUMP JUMPDEST PUSH32 0x4E487B7100000000000000000000000000000000000000000000000000000000 PUSH1 0x0 MSTORE PUSH1 0x41 PUSH1 0x4 MSTORE PUSH1 0x24 PUSH1 0x0 REVERT JUMPDEST PUSH1 0x0 DUP2 SWAP1 POP DUP2 PUSH1 0x0 MSTORE PUSH1 0x20 PUSH1 0x0 KECCAK256 SWAP1 POP SWAP2 SWAP1 POP JUMP JUMPDEST PUSH1 0x0 PUSH1 0x20 PUSH1 0x1F DUP4 ADD DIV SWAP1 POP SWAP2 SWAP1 POP JUMP JUMPDEST PUSH1 0x0 DUP3 DUP3 SHL SWAP1 POP SWAP3 SWAP2 POP POP JUMP JUMPDEST PUSH1 0x0 PUSH1 0x8 DUP4 MUL PUSH2 0x10E1 PUSH32 0xFFFFFFFFFFFFFFFFFFFFFFFFFFFFFFFFFFFFFFFFFFFFFFFFFFFFFFFFFFFFFFFF DUP3 PUSH2 0x10A4 JUMP JUMPDEST PUSH2 0x10EB DUP7 DUP4 PUSH2 0x10A4 JUMP JUMPDEST SWAP6 POP DUP1 NOT DUP5 AND SWAP4 POP DUP1 DUP7 AND DUP5 OR SWAP3 POP POP POP SWAP4 SWAP3 POP POP POP JUMP JUMPDEST PUSH1 0x0 DUP2 SWAP1 POP SWAP2 SWAP1 POP JUMP JUMPDEST PUSH1 0x0 PUSH2 0x1128 PUSH2 0x1123 PUSH2 0x111E DUP5 PUSH2 0x8DC JUMP JUMPDEST PUSH2 0x1103 JUMP JUMPDEST PUSH2 0x8DC JUMP JUMPDEST SWAP1 POP SWAP2 SWAP1 POP JUMP JUMPDEST PUSH1 0x0 DUP2 SWAP1 POP SWAP2 SWAP1 POP JUMP JUMPDEST PUSH2 0x1142 DUP4 PUSH2 0x110D JUMP JUMPDEST PUSH2 0x1156 PUSH2 0x114E DUP3 PUSH2 0x112F JUMP JUMPDEST DUP5 DUP5 SLOAD PUSH2 0x10B1 JUMP JUMPDEST DUP3 SSTORE POP POP POP POP JUMP JUMPDEST PUSH1 0x0 SWAP1 JUMP JUMPDEST PUSH2 0x116B PUSH2 0x115E JUMP JUMPDEST PUSH2 0x1176 DUP2 DUP5 DUP5 PUSH2 0x1139 JUMP JUMPDEST POP POP POP JUMP JUMPDEST JUMPDEST DUP2 DUP2 LT ISZERO PUSH2 0x119A JUMPI PUSH2 0x118F PUSH1 0x0 DUP3 PUSH2 0x1163 JUMP JUMPDEST PUSH1 0x1 DUP2 ADD SWAP1 POP PUSH2 0x117C JUMP JUMPDEST POP POP JUMP JUMPDEST PUSH1 0x1F DUP3 GT ISZERO PUSH2 0x11DF JUMPI PUSH2 0x11B0 DUP2 PUSH2 0x107F JUMP JUMPDEST PUSH2 0x11B9 DUP5 PUSH2 0x1094 JUMP JUMPDEST DUP2 ADD PUSH1 0x20 DUP6 LT ISZERO PUSH2 0x11C8 JUMPI DUP2 SWAP1 POP JUMPDEST PUSH2 0x11DC PUSH2 0x11D4 DUP6 PUSH2 0x1094 JUMP JUMPDEST DUP4 ADD DUP3 PUSH2 0x117B JUMP JUMPDEST POP POP JUMPDEST POP POP POP JUMP JUMPDEST PUSH1 0x0 DUP3 DUP3 SHR SWAP1 POP SWAP3 SWAP2 POP POP JUMP JUMPDEST PUSH1 0x0 PUSH2 0x1202 PUSH1 0x0 NOT DUP5 PUSH1 0x8 MUL PUSH2 0x11E4 JUMP JUMPDEST NOT DUP1 DUP4 AND SWAP2 POP POP SWAP3 SWAP2 POP POP JUMP JUMPDEST PUSH1 0x0 PUSH2 0x121B DUP4 DUP4 PUSH2 0x11F1 JUMP JUMPDEST SWAP2 POP DUP3 PUSH1 0x2 MUL DUP3 OR SWAP1 POP SWAP3 SWAP2 POP POP JUMP JUMPDEST PUSH2 0x1234 DUP3 PUSH2 0x980 JUMP JUMPDEST PUSH8 0xFFFFFFFFFFFFFFFF DUP2 GT ISZERO PUSH2 0x124D JUMPI PUSH2 0x124C PUSH2 0x1050 JUMP JUMPDEST JUMPDEST PUSH2 0x1257 DUP3 SLOAD PUSH2 0xFA8 JUMP JUMPDEST PUSH2 0x1262 DUP3 DUP3 DUP6 PUSH2 0x119E JUMP JUMPDEST PUSH1 0x0 PUSH1 0x20 SWAP1 POP PUSH1 0x1F DUP4 GT PUSH1 0x1 DUP2 EQ PUSH2 0x1295 JUMPI PUSH1 0x0 DUP5 ISZERO PUSH2 0x1283 JUMPI DUP3 DUP8 ADD MLOAD SWAP1 POP JUMPDEST PUSH2 0x128D DUP6 DUP3 PUSH2 0x120F JUMP JUMPDEST DUP7 SSTORE POP PUSH2 0x12F5 JUMP JUMPDEST PUSH1 0x1F NOT DUP5 AND PUSH2 0x12A3 DUP7 PUSH2 0x107F JUMP JUMPDEST PUSH1 0x0 JUMPDEST DUP3 DUP2 LT ISZERO PUSH2 0x12CB JUMPI DUP5 DUP10 ADD MLOAD DUP3 SSTORE PUSH1 0x1 DUP3 ADD SWAP2 POP PUSH1 0x20 DUP6 ADD SWAP5 POP PUSH1 0x20 DUP2 ADD SWAP1 POP PUSH2 0x12A6 JUMP JUMPDEST DUP7 DUP4 LT ISZERO PUSH2 0x12E8 JUMPI DUP5 DUP10 ADD MLOAD PUSH2 0x12E4 PUSH1 0x1F DUP10 AND DUP3 PUSH2 0x11F1 JUMP JUMPDEST DUP4 SSTORE POP JUMPDEST PUSH1 0x1 PUSH1 0x2 DUP9 MUL ADD DUP9 SSTORE POP POP POP JUMPDEST POP POP POP POP POP POP JUMP JUMPDEST DUP3 DUP2 DUP4 CALLDATACOPY PUSH1 0x0 DUP4 DUP4 ADD MSTORE POP POP POP JUMP JUMPDEST PUSH1 0x0 PUSH2 0x1318 DUP4 DUP6 PUSH2 0xCD7 JUMP JUMPDEST SWAP4 POP PUSH2 0x1325 DUP4 DUP6 DUP5 PUSH2 0x12FD JUMP JUMPDEST PUSH2 0x132E DUP4 PUSH2 0x9C6 JUMP JUMPDEST DUP5 ADD SWAP1 POP SWAP4 SWAP3 POP POP POP JUMP JUMPDEST PUSH1 0x0 PUSH1 0x80 DUP3 ADD SWAP1 POP DUP2 DUP2 SUB PUSH1 0x0 DUP4 ADD MSTORE PUSH2 0x1354 DUP2 DUP8 DUP10 PUSH2 0x130C JUMP JUMPDEST SWAP1 POP PUSH2 0x1363 PUSH1 0x20 DUP4 ADD DUP7 PUSH2 0xD21 JUMP JUMPDEST PUSH2 0x1370 PUSH1 0x40 DUP4 ADD DUP6 PUSH2 0xD30 JUMP JUMPDEST PUSH2 0x137D PUSH1 0x60 DUP4 ADD DUP5 PUSH2 0xC9E JUMP JUMPDEST SWAP7 SWAP6 POP POP POP POP POP POP JUMP INVALID LOG2 PUSH5 0x6970667358 0x22 SLT KECCAK256 CALLDATASIZE MSIZE DUP11 0xBB 0xC5 PUSH28 0xF9EAA21FEECCCC818BFFADBDBCAE544D5A2D889DBDAAA33B3EAE6473 PUSH16 0x6C634300081100330000000000000000 "
				},
				"gasEstimates": {
					"creation": {
						"codeDepositCost": "1010600",
						"executionCost": "1047",
						"totalCost": "1011647"
					},
					"external": {
						"getLog(uint256)": "infinite",
						"getLogsCount()": "2467",
						"getUserLogs(address)": "infinite",
						"logData(address,string,bool,bytes32)": "infinite",
						"logs(uint256)": "infinite"
					}
				},
				"methodIdentifiers": {
					"getLog(uint256)": "3206b2c6",
					"getLogsCount()": "cc9e300f",
					"getUserLogs(address)": "5de0f6f6",
					"logData(address,string,bool,bytes32)": "f6a1d12a",
					"logs(uint256)": "e79899bd"
				}
			},
			"storageLayout": {
				"storage": [
					{
						"astId": 17,
						"contract": "contract/DataGuardianLogger.sol:DataGuardianLogger",
						"label": "logs",
						"offset": 0,
						"slot": "0",
						"type": "t_array(t_struct(Log)13_storage)dyn_storage"
					}
				],
				"types": {
					"t_address": {
						"encoding": "inplace",
						"label": "address",
						"numberOfBytes": "20"
					},
					"t_array(t_struct(Log)13_storage)dyn_storage": {
						"base": "t_struct(Log)13_storage",
						"encoding": "dynamic_array",
						"label": "struct DataGuardianLogger.Log[]",
						"numberOfBytes": "32"
					},
					"t_bool": {
						"encoding": "inplace",
						"label": "bool",
						"numberOfBytes": "1"
					},
					"t_bytes32": {
						"encoding": "inplace",
						"label": "bytes32",
						"numberOfBytes": "32"
					},
					"t_string_storage": {
						"encoding": "bytes",
						"label": "string",
						"numberOfBytes": "32"
					},
					"t_struct(Log)13_storage": {
						"encoding": "inplace",
						"label": "struct DataGuardianLogger.Log",
						"members": [
							{
								"astId": 4,
								"contract": "contract/DataGuardianLogger.sol:DataGuardianLogger",
								"label": "user",
								"offset": 0,
								"slot": "0",
								"type": "t_address"
							},
							{
								"astId": 6,
								"contract": "contract/DataGuardianLogger.sol:DataGuardianLogger",
								"label": "dataType",
								"offset": 0,
								"slot": "1",
								"type": "t_string_storage"
							},
							{
								"astId": 8,
								"contract": "contract/DataGuardianLogger.sol:DataGuardianLogger",
								"label": "decision",
								"offset": 0,
								"slot": "2",
								"type": "t_bool"
							},
							{
								"astId": 10,
								"contract": "contract/DataGuardianLogger.sol:DataGuardianLogger",
								"label": "detailsHash",
								"offset": 0,
								"slot": "3",
								"type": "t_bytes32"
							},
							{
								"astId": 12,
								"contract": "contract/DataGuardianLogger.sol:DataGuardianLogger",
								"label": "timestamp",
								"offset": 0,
								"slot": "4",
								"type": "t_uint256"
							}
						],
						"numberOfBytes": "160"
					},
					"t_uint256": {
						"encoding": "inplace",
						"label": "uint256",
						"numberOfBytes": "32"
					}
				}
			},
			"userdoc": {
				"kind": "user",
				"methods": {},
				"version": 1
			}
		}
	}
}